{
	"contracts/QuadraricSolver.sol": {
		"QuadraticSolver": {
			"abi": [
				{
					"inputs": [
						{
							"internalType": "int256",
							"name": "a",
							"type": "int256"
						},
						{
							"internalType": "int256",
							"name": "b",
							"type": "int256"
						},
						{
							"internalType": "int256",
							"name": "c",
							"type": "int256"
						}
					],
					"name": "solveQuadratic",
					"outputs": [
						{
							"internalType": "string",
							"name": "",
							"type": "string"
						},
						{
							"internalType": "int256",
							"name": "",
							"type": "int256"
						},
						{
							"internalType": "int256",
							"name": "",
							"type": "int256"
						}
					],
					"stateMutability": "pure",
					"type": "function"
				}
			],
			"devdoc": {
				"kind": "dev",
				"methods": {},
				"version": 1
			},
			"evm": {
				"assembly": "    /* \"contracts/QuadraricSolver.sol\":60:2419  contract QuadraticSolver {\r... */\n  mstore(0x40, 0x80)\n  callvalue\n  dup1\n  iszero\n  tag_1\n  jumpi\n  0x00\n  dup1\n  revert\ntag_1:\n  pop\n  dataSize(sub_0)\n  dup1\n  dataOffset(sub_0)\n  0x00\n  codecopy\n  0x00\n  return\nstop\n\nsub_0: assembly {\n        /* \"contracts/QuadraricSolver.sol\":60:2419  contract QuadraticSolver {\r... */\n      mstore(0x40, 0x80)\n      callvalue\n      dup1\n      iszero\n      tag_1\n      jumpi\n      0x00\n      dup1\n      revert\n    tag_1:\n      pop\n      jumpi(tag_2, lt(calldatasize, 0x04))\n      shr(0xe0, calldataload(0x00))\n      dup1\n      0x872339bd\n      eq\n      tag_3\n      jumpi\n    tag_2:\n      0x00\n      dup1\n      revert\n        /* \"contracts/QuadraricSolver.sol\":141:748  function solveQuadratic(int256 a, int256 b, int256 c) public pure returns (string memory, int256, int256) {\r... */\n    tag_3:\n      tag_4\n      0x04\n      dup1\n      calldatasize\n      sub\n      dup2\n      add\n      swap1\n      tag_5\n      swap2\n      swap1\n      tag_6\n      jump\t// in\n    tag_5:\n      tag_7\n      jump\t// in\n    tag_4:\n      mload(0x40)\n      tag_8\n      swap4\n      swap3\n      swap2\n      swap1\n      tag_9\n      jump\t// in\n    tag_8:\n      mload(0x40)\n      dup1\n      swap2\n      sub\n      swap1\n      return\n    tag_7:\n        /* \"contracts/QuadraricSolver.sol\":216:229  string memory */\n      0x60\n        /* \"contracts/QuadraricSolver.sol\":231:237  int256 */\n      0x00\n        /* \"contracts/QuadraricSolver.sol\":239:245  int256 */\n      dup1\n        /* \"contracts/QuadraricSolver.sol\":271:272  0 */\n      0x00\n        /* \"contracts/QuadraricSolver.sol\":266:267  a */\n      dup7\n        /* \"contracts/QuadraricSolver.sol\":266:272  a != 0 */\n      eq\n      iszero\n        /* \"contracts/QuadraricSolver.sol\":258:306  require(a != 0, \"Coefficient a cannot be zero.\") */\n      tag_11\n      jumpi\n      mload(0x40)\n      0x08c379a000000000000000000000000000000000000000000000000000000000\n      dup2\n      mstore\n      0x04\n      add\n      tag_12\n      swap1\n      tag_13\n      jump\t// in\n    tag_12:\n      mload(0x40)\n      dup1\n      swap2\n      sub\n      swap1\n      revert\n    tag_11:\n        /* \"contracts/QuadraricSolver.sol\":319:338  int256 discriminant */\n      0x00\n        /* \"contracts/QuadraricSolver.sol\":357:358  c */\n      dup5\n        /* \"contracts/QuadraricSolver.sol\":353:354  a */\n      dup8\n        /* \"contracts/QuadraricSolver.sol\":349:350  4 */\n      0x04\n        /* \"contracts/QuadraricSolver.sol\":349:354  4 * a */\n      tag_14\n      swap2\n      swap1\n      tag_15\n      jump\t// in\n    tag_14:\n        /* \"contracts/QuadraricSolver.sol\":349:358  4 * a * c */\n      tag_16\n      swap2\n      swap1\n      tag_15\n      jump\t// in\n    tag_16:\n        /* \"contracts/QuadraricSolver.sol\":345:346  b */\n      dup7\n        /* \"contracts/QuadraricSolver.sol\":341:342  b */\n      dup8\n        /* \"contracts/QuadraricSolver.sol\":341:346  b * b */\n      tag_17\n      swap2\n      swap1\n      tag_15\n      jump\t// in\n    tag_17:\n        /* \"contracts/QuadraricSolver.sol\":341:358  b * b - 4 * a * c */\n      tag_18\n      swap2\n      swap1\n      tag_19\n      jump\t// in\n    tag_18:\n        /* \"contracts/QuadraricSolver.sol\":319:358  int256 discriminant = b * b - 4 * a * c */\n      swap1\n      pop\n        /* \"contracts/QuadraricSolver.sol\":393:394  0 */\n      0x00\n        /* \"contracts/QuadraricSolver.sol\":377:389  discriminant */\n      dup2\n        /* \"contracts/QuadraricSolver.sol\":377:394  discriminant >= 0 */\n      slt\n      iszero\n        /* \"contracts/QuadraricSolver.sol\":369:430  require(discriminant >= 0, \"The equation has no real roots.\") */\n      tag_20\n      jumpi\n      mload(0x40)\n      0x08c379a000000000000000000000000000000000000000000000000000000000\n      dup2\n      mstore\n      0x04\n      add\n      tag_21\n      swap1\n      tag_22\n      jump\t// in\n    tag_21:\n      mload(0x40)\n      dup1\n      swap2\n      sub\n      swap1\n      revert\n    tag_20:\n        /* \"contracts/QuadraricSolver.sol\":443:466  int256 sqrtDiscriminant */\n      0x00\n        /* \"contracts/QuadraricSolver.sol\":469:496  sqrt(uint256(discriminant)) */\n      tag_23\n        /* \"contracts/QuadraricSolver.sol\":482:494  discriminant */\n      dup3\n        /* \"contracts/QuadraricSolver.sol\":469:473  sqrt */\n      tag_24\n        /* \"contracts/QuadraricSolver.sol\":469:496  sqrt(uint256(discriminant)) */\n      jump\t// in\n    tag_23:\n        /* \"contracts/QuadraricSolver.sol\":443:496  int256 sqrtDiscriminant = sqrt(uint256(discriminant)) */\n      swap1\n      pop\n        /* \"contracts/QuadraricSolver.sol\":507:518  int256 twoA */\n      0x00\n        /* \"contracts/QuadraricSolver.sol\":525:526  a */\n      dup9\n        /* \"contracts/QuadraricSolver.sol\":521:522  2 */\n      0x02\n        /* \"contracts/QuadraricSolver.sol\":521:526  2 * a */\n      tag_25\n      swap2\n      swap1\n      tag_15\n      jump\t// in\n    tag_25:\n        /* \"contracts/QuadraricSolver.sol\":507:526  int256 twoA = 2 * a */\n      swap1\n      pop\n        /* \"contracts/QuadraricSolver.sol\":539:551  int256 root1 */\n      0x00\n        /* \"contracts/QuadraricSolver.sol\":580:584  twoA */\n      dup2\n        /* \"contracts/QuadraricSolver.sol\":560:576  sqrtDiscriminant */\n      dup4\n        /* \"contracts/QuadraricSolver.sol\":556:557  b */\n      dup11\n        /* \"contracts/QuadraricSolver.sol\":555:557  -b */\n      tag_26\n      swap1\n      tag_27\n      jump\t// in\n    tag_26:\n        /* \"contracts/QuadraricSolver.sol\":555:576  -b + sqrtDiscriminant */\n      tag_28\n      swap2\n      swap1\n      tag_29\n      jump\t// in\n    tag_28:\n        /* \"contracts/QuadraricSolver.sol\":554:584  (-b + sqrtDiscriminant) / twoA */\n      tag_30\n      swap2\n      swap1\n      tag_31\n      jump\t// in\n    tag_30:\n        /* \"contracts/QuadraricSolver.sol\":539:584  int256 root1 = (-b + sqrtDiscriminant) / twoA */\n      swap1\n      pop\n        /* \"contracts/QuadraricSolver.sol\":595:607  int256 root2 */\n      0x00\n        /* \"contracts/QuadraricSolver.sol\":636:640  twoA */\n      dup3\n        /* \"contracts/QuadraricSolver.sol\":616:632  sqrtDiscriminant */\n      dup5\n        /* \"contracts/QuadraricSolver.sol\":612:613  b */\n      dup12\n        /* \"contracts/QuadraricSolver.sol\":611:613  -b */\n      tag_32\n      swap1\n      tag_27\n      jump\t// in\n    tag_32:\n        /* \"contracts/QuadraricSolver.sol\":611:632  -b - sqrtDiscriminant */\n      tag_33\n      swap2\n      swap1\n      tag_19\n      jump\t// in\n    tag_33:\n        /* \"contracts/QuadraricSolver.sol\":610:640  (-b - sqrtDiscriminant) / twoA */\n      tag_34\n      swap2\n      swap1\n      tag_31\n      jump\t// in\n    tag_34:\n        /* \"contracts/QuadraricSolver.sol\":595:640  int256 root2 = (-b - sqrtDiscriminant) / twoA */\n      swap1\n      pop\n        /* \"contracts/QuadraricSolver.sol\":653:675  string memory equation */\n      0x00\n        /* \"contracts/QuadraricSolver.sol\":678:698  getEquation(a, b, c) */\n      tag_35\n        /* \"contracts/QuadraricSolver.sol\":690:691  a */\n      dup13\n        /* \"contracts/QuadraricSolver.sol\":693:694  b */\n      dup13\n        /* \"contracts/QuadraricSolver.sol\":696:697  c */\n      dup13\n        /* \"contracts/QuadraricSolver.sol\":678:689  getEquation */\n      tag_36\n        /* \"contracts/QuadraricSolver.sol\":678:698  getEquation(a, b, c) */\n      jump\t// in\n    tag_35:\n        /* \"contracts/QuadraricSolver.sol\":653:698  string memory equation = getEquation(a, b, c) */\n      swap1\n      pop\n        /* \"contracts/QuadraricSolver.sol\":717:725  equation */\n      dup1\n        /* \"contracts/QuadraricSolver.sol\":727:732  root1 */\n      dup4\n        /* \"contracts/QuadraricSolver.sol\":734:739  root2 */\n      dup4\n        /* \"contracts/QuadraricSolver.sol\":709:740  return (equation, root1, root2) */\n      swap9\n      pop\n      swap9\n      pop\n      swap9\n      pop\n      pop\n      pop\n      pop\n      pop\n      pop\n      pop\n        /* \"contracts/QuadraricSolver.sol\":141:748  function solveQuadratic(int256 a, int256 b, int256 c) public pure returns (string memory, int256, int256) {\r... */\n      swap4\n      pop\n      swap4\n      pop\n      swap4\n      swap1\n      pop\n      jump\t// out\n        /* \"contracts/QuadraricSolver.sol\":810:1150  function sqrt(uint256 y) internal pure returns (int256) {\r... */\n    tag_24:\n        /* \"contracts/QuadraricSolver.sol\":858:864  int256 */\n      0x00\n        /* \"contracts/QuadraricSolver.sol\":886:887  0 */\n      dup1\n        /* \"contracts/QuadraricSolver.sol\":881:882  y */\n      dup3\n        /* \"contracts/QuadraricSolver.sol\":881:887  y == 0 */\n      eq\n        /* \"contracts/QuadraricSolver.sol\":877:897  if (y == 0) return 0 */\n      iszero\n      tag_38\n      jumpi\n        /* \"contracts/QuadraricSolver.sol\":896:897  0 */\n      0x00\n        /* \"contracts/QuadraricSolver.sol\":889:897  return 0 */\n      swap1\n      pop\n      jump(tag_37)\n        /* \"contracts/QuadraricSolver.sol\":877:897  if (y == 0) return 0 */\n    tag_38:\n        /* \"contracts/QuadraricSolver.sol\":917:918  3 */\n      0x03\n        /* \"contracts/QuadraricSolver.sol\":912:913  y */\n      dup3\n        /* \"contracts/QuadraricSolver.sol\":912:918  y <= 3 */\n      gt\n        /* \"contracts/QuadraricSolver.sol\":908:928  if (y <= 3) return 1 */\n      tag_39\n      jumpi\n        /* \"contracts/QuadraricSolver.sol\":927:928  1 */\n      0x01\n        /* \"contracts/QuadraricSolver.sol\":920:928  return 1 */\n      swap1\n      pop\n      jump(tag_37)\n        /* \"contracts/QuadraricSolver.sol\":908:928  if (y <= 3) return 1 */\n    tag_39:\n        /* \"contracts/QuadraricSolver.sol\":939:947  int256 z */\n      0x00\n        /* \"contracts/QuadraricSolver.sol\":957:958  y */\n      dup3\n        /* \"contracts/QuadraricSolver.sol\":939:959  int256 z = int256(y) */\n      swap1\n      pop\n        /* \"contracts/QuadraricSolver.sol\":970:978  int256 x */\n      0x00\n        /* \"contracts/QuadraricSolver.sol\":989:990  1 */\n      0x01\n        /* \"contracts/QuadraricSolver.sol\":985:986  2 */\n      0x02\n        /* \"contracts/QuadraricSolver.sol\":981:982  z */\n      dup4\n        /* \"contracts/QuadraricSolver.sol\":981:986  z / 2 */\n      tag_40\n      swap2\n      swap1\n      tag_31\n      jump\t// in\n    tag_40:\n        /* \"contracts/QuadraricSolver.sol\":981:990  z / 2 + 1 */\n      tag_41\n      swap2\n      swap1\n      tag_29\n      jump\t// in\n    tag_41:\n        /* \"contracts/QuadraricSolver.sol\":970:990  int256 x = z / 2 + 1 */\n      swap1\n      pop\n        /* \"contracts/QuadraricSolver.sol\":1001:1014  int256 result */\n      0x00\n        /* \"contracts/QuadraricSolver.sol\":1017:1018  z */\n      dup3\n        /* \"contracts/QuadraricSolver.sol\":1001:1018  int256 result = z */\n      swap1\n      pop\n        /* \"contracts/QuadraricSolver.sol\":1029:1119  while (x < result) {\r... */\n    tag_42:\n        /* \"contracts/QuadraricSolver.sol\":1040:1046  result */\n      dup1\n        /* \"contracts/QuadraricSolver.sol\":1036:1037  x */\n      dup3\n        /* \"contracts/QuadraricSolver.sol\":1036:1046  x < result */\n      slt\n        /* \"contracts/QuadraricSolver.sol\":1029:1119  while (x < result) {\r... */\n      iszero\n      tag_43\n      jumpi\n        /* \"contracts/QuadraricSolver.sol\":1072:1073  x */\n      dup2\n        /* \"contracts/QuadraricSolver.sol\":1063:1073  result = x */\n      swap1\n      pop\n        /* \"contracts/QuadraricSolver.sol\":1106:1107  2 */\n      0x02\n        /* \"contracts/QuadraricSolver.sol\":1101:1102  x */\n      dup3\n        /* \"contracts/QuadraricSolver.sol\":1097:1098  x */\n      dup4\n        /* \"contracts/QuadraricSolver.sol\":1093:1094  z */\n      dup6\n        /* \"contracts/QuadraricSolver.sol\":1093:1098  z / x */\n      tag_44\n      swap2\n      swap1\n      tag_31\n      jump\t// in\n    tag_44:\n        /* \"contracts/QuadraricSolver.sol\":1093:1102  z / x + x */\n      tag_45\n      swap2\n      swap1\n      tag_29\n      jump\t// in\n    tag_45:\n        /* \"contracts/QuadraricSolver.sol\":1092:1107  (z / x + x) / 2 */\n      tag_46\n      swap2\n      swap1\n      tag_31\n      jump\t// in\n    tag_46:\n        /* \"contracts/QuadraricSolver.sol\":1088:1107  x = (z / x + x) / 2 */\n      swap2\n      pop\n        /* \"contracts/QuadraricSolver.sol\":1029:1119  while (x < result) {\r... */\n      jump(tag_42)\n    tag_43:\n        /* \"contracts/QuadraricSolver.sol\":1136:1142  result */\n      dup1\n        /* \"contracts/QuadraricSolver.sol\":1129:1142  return result */\n      swap4\n      pop\n      pop\n      pop\n      pop\n        /* \"contracts/QuadraricSolver.sol\":810:1150  function sqrt(uint256 y) internal pure returns (int256) {\r... */\n    tag_37:\n      swap2\n      swap1\n      pop\n      jump\t// out\n        /* \"contracts/QuadraricSolver.sol\":1239:1542  function getEquation(int256 a, int256 b, int256 c) internal pure returns (string memory) {\r... */\n    tag_36:\n        /* \"contracts/QuadraricSolver.sol\":1313:1326  string memory */\n      0x60\n        /* \"contracts/QuadraricSolver.sol\":1402:1416  intToString(a) */\n      tag_48\n        /* \"contracts/QuadraricSolver.sol\":1414:1415  a */\n      dup5\n        /* \"contracts/QuadraricSolver.sol\":1402:1413  intToString */\n      tag_49\n        /* \"contracts/QuadraricSolver.sol\":1402:1416  intToString(a) */\n      jump\t// in\n    tag_48:\n        /* \"contracts/QuadraricSolver.sol\":1445:1459  intToString(b) */\n      tag_50\n        /* \"contracts/QuadraricSolver.sol\":1457:1458  b */\n      dup5\n        /* \"contracts/QuadraricSolver.sol\":1445:1456  intToString */\n      tag_49\n        /* \"contracts/QuadraricSolver.sol\":1445:1459  intToString(b) */\n      jump\t// in\n    tag_50:\n        /* \"contracts/QuadraricSolver.sol\":1486:1500  intToString(c) */\n      tag_51\n        /* \"contracts/QuadraricSolver.sol\":1498:1499  c */\n      dup5\n        /* \"contracts/QuadraricSolver.sol\":1486:1497  intToString */\n      tag_49\n        /* \"contracts/QuadraricSolver.sol\":1486:1500  intToString(c) */\n      jump\t// in\n    tag_51:\n        /* \"contracts/QuadraricSolver.sol\":1367:1523  abi.encodePacked(\r... */\n      add(0x20, mload(0x40))\n      tag_52\n      swap4\n      swap3\n      swap2\n      swap1\n      tag_53\n      jump\t// in\n    tag_52:\n      mload(0x40)\n      0x20\n      dup2\n      dup4\n      sub\n      sub\n      dup2\n      mstore\n      swap1\n      0x40\n      mstore\n        /* \"contracts/QuadraricSolver.sol\":1339:1534  return string(\r... */\n      swap1\n      pop\n        /* \"contracts/QuadraricSolver.sol\":1239:1542  function getEquation(int256 a, int256 b, int256 c) internal pure returns (string memory) {\r... */\n      swap4\n      swap3\n      pop\n      pop\n      pop\n      jump\t// out\n        /* \"contracts/QuadraricSolver.sol\":1595:2416  function intToString(int256 value) internal pure returns (string memory) {\r... */\n    tag_49:\n        /* \"contracts/QuadraricSolver.sol\":1653:1666  string memory */\n      0x60\n        /* \"contracts/QuadraricSolver.sol\":1692:1693  0 */\n      0x00\n        /* \"contracts/QuadraricSolver.sol\":1683:1688  value */\n      dup3\n        /* \"contracts/QuadraricSolver.sol\":1683:1693  value == 0 */\n      eq\n        /* \"contracts/QuadraricSolver.sol\":1679:1732  if (value == 0) {\r... */\n      iszero\n      tag_55\n      jumpi\n        /* \"contracts/QuadraricSolver.sol\":1710:1720  return \"0\" */\n      mload(0x40)\n      dup1\n      0x40\n      add\n      0x40\n      mstore\n      dup1\n      0x01\n      dup2\n      mstore\n      0x20\n      add\n      0x3000000000000000000000000000000000000000000000000000000000000000\n      dup2\n      mstore\n      pop\n      swap1\n      pop\n      jump(tag_54)\n        /* \"contracts/QuadraricSolver.sol\":1679:1732  if (value == 0) {\r... */\n    tag_55:\n        /* \"contracts/QuadraricSolver.sol\":1742:1753  int256 temp */\n      0x00\n        /* \"contracts/QuadraricSolver.sol\":1756:1761  value */\n      dup3\n        /* \"contracts/QuadraricSolver.sol\":1742:1761  int256 temp = value */\n      swap1\n      pop\n        /* \"contracts/QuadraricSolver.sol\":1772:1786  uint256 digits */\n      0x00\n        /* \"contracts/QuadraricSolver.sol\":1797:1810  bool negative */\n      dup1\n        /* \"contracts/QuadraricSolver.sol\":1813:1818  false */\n      0x00\n        /* \"contracts/QuadraricSolver.sol\":1797:1818  bool negative = false */\n      swap1\n      pop\n        /* \"contracts/QuadraricSolver.sol\":1840:1841  0 */\n      0x00\n        /* \"contracts/QuadraricSolver.sol\":1833:1837  temp */\n      dup4\n        /* \"contracts/QuadraricSolver.sol\":1833:1841  temp < 0 */\n      slt\n        /* \"contracts/QuadraricSolver.sol\":1829:1912  if (temp < 0) {\r... */\n      iszero\n      tag_56\n      jumpi\n        /* \"contracts/QuadraricSolver.sol\":1869:1873  true */\n      0x01\n        /* \"contracts/QuadraricSolver.sol\":1858:1873  negative = true */\n      swap1\n      pop\n        /* \"contracts/QuadraricSolver.sol\":1896:1900  temp */\n      dup3\n        /* \"contracts/QuadraricSolver.sol\":1895:1900  -temp */\n      tag_57\n      swap1\n      tag_27\n      jump\t// in\n    tag_57:\n        /* \"contracts/QuadraricSolver.sol\":1888:1900  temp = -temp */\n      swap3\n      pop\n        /* \"contracts/QuadraricSolver.sol\":1829:1912  if (temp < 0) {\r... */\n    tag_56:\n        /* \"contracts/QuadraricSolver.sol\":1922:2000  while (temp != 0) {\r... */\n    tag_58:\n        /* \"contracts/QuadraricSolver.sol\":1937:1938  0 */\n      0x00\n        /* \"contracts/QuadraricSolver.sol\":1929:1933  temp */\n      dup4\n        /* \"contracts/QuadraricSolver.sol\":1929:1938  temp != 0 */\n      eq\n        /* \"contracts/QuadraricSolver.sol\":1922:2000  while (temp != 0) {\r... */\n      tag_59\n      jumpi\n        /* \"contracts/QuadraricSolver.sol\":1955:1963  digits++ */\n      dup2\n      dup1\n      tag_60\n      swap1\n      tag_61\n      jump\t// in\n    tag_60:\n      swap3\n      pop\n      pop\n        /* \"contracts/QuadraricSolver.sol\":1986:1988  10 */\n      0x0a\n        /* \"contracts/QuadraricSolver.sol\":1978:1988  temp /= 10 */\n      dup4\n      tag_62\n      swap2\n      swap1\n      tag_31\n      jump\t// in\n    tag_62:\n      swap3\n      pop\n        /* \"contracts/QuadraricSolver.sol\":1922:2000  while (temp != 0) {\r... */\n      jump(tag_58)\n    tag_59:\n        /* \"contracts/QuadraricSolver.sol\":2010:2029  bytes memory buffer */\n      0x00\n        /* \"contracts/QuadraricSolver.sol\":2052:2060  negative */\n      dup2\n        /* \"contracts/QuadraricSolver.sol\":2052:2068  negative ? 1 : 0 */\n      tag_63\n      jumpi\n        /* \"contracts/QuadraricSolver.sol\":2067:2068  0 */\n      0x00\n        /* \"contracts/QuadraricSolver.sol\":2052:2068  negative ? 1 : 0 */\n      jump(tag_64)\n    tag_63:\n        /* \"contracts/QuadraricSolver.sol\":2063:2064  1 */\n      0x01\n        /* \"contracts/QuadraricSolver.sol\":2052:2068  negative ? 1 : 0 */\n    tag_64:\n        /* \"contracts/QuadraricSolver.sol\":2042:2069  digits + (negative ? 1 : 0) */\n      0xff\n      and\n        /* \"contracts/QuadraricSolver.sol\":2042:2048  digits */\n      dup4\n        /* \"contracts/QuadraricSolver.sol\":2042:2069  digits + (negative ? 1 : 0) */\n      tag_65\n      swap2\n      swap1\n      tag_66\n      jump\t// in\n    tag_65:\n        /* \"contracts/QuadraricSolver.sol\":2032:2070  new bytes(digits + (negative ? 1 : 0)) */\n      0xffffffffffffffff\n      dup2\n      gt\n      iszero\n      tag_67\n      jumpi\n      mstore(0x00, 0x4e487b7100000000000000000000000000000000000000000000000000000000)\n      mstore(0x04, 0x41)\n      revert(0x00, 0x24)\n    tag_67:\n      mload(0x40)\n      swap1\n      dup1\n      dup3\n      mstore\n      dup1\n      0x1f\n      add\n      not(0x1f)\n      and\n      0x20\n      add\n      dup3\n      add\n      0x40\n      mstore\n      dup1\n      iszero\n      tag_68\n      jumpi\n      dup2\n      0x20\n      add\n      0x01\n      dup3\n      mul\n      dup1\n      calldatasize\n      dup4\n      calldatacopy\n      dup1\n      dup3\n      add\n      swap2\n      pop\n      pop\n      swap1\n      pop\n    tag_68:\n      pop\n        /* \"contracts/QuadraricSolver.sol\":2010:2070  bytes memory buffer = new bytes(digits + (negative ? 1 : 0)) */\n      swap1\n      pop\n        /* \"contracts/QuadraricSolver.sol\":2081:2094  uint256 index */\n      0x00\n        /* \"contracts/QuadraricSolver.sol\":2097:2103  buffer */\n      dup2\n        /* \"contracts/QuadraricSolver.sol\":2097:2110  buffer.length */\n      mload\n        /* \"contracts/QuadraricSolver.sol\":2081:2110  uint256 index = buffer.length */\n      swap1\n      pop\n        /* \"contracts/QuadraricSolver.sol\":2136:2137  0 */\n      0x00\n        /* \"contracts/QuadraricSolver.sol\":2128:2133  value */\n      dup8\n        /* \"contracts/QuadraricSolver.sol\":2128:2137  value < 0 */\n      slt\n        /* \"contracts/QuadraricSolver.sol\":2128:2154  value < 0 ? -value : value */\n      tag_69\n      jumpi\n        /* \"contracts/QuadraricSolver.sol\":2149:2154  value */\n      dup7\n        /* \"contracts/QuadraricSolver.sol\":2128:2154  value < 0 ? -value : value */\n      jump(tag_70)\n    tag_69:\n        /* \"contracts/QuadraricSolver.sol\":2141:2146  value */\n      dup7\n        /* \"contracts/QuadraricSolver.sol\":2140:2146  -value */\n      tag_71\n      swap1\n      tag_27\n      jump\t// in\n    tag_71:\n        /* \"contracts/QuadraricSolver.sol\":2128:2154  value < 0 ? -value : value */\n    tag_70:\n        /* \"contracts/QuadraricSolver.sol\":2121:2154  temp = value < 0 ? -value : value */\n      swap5\n      pop\n        /* \"contracts/QuadraricSolver.sol\":2165:2311  while (temp != 0) {\r... */\n    tag_72:\n        /* \"contracts/QuadraricSolver.sol\":2180:2181  0 */\n      0x00\n        /* \"contracts/QuadraricSolver.sol\":2172:2176  temp */\n      dup6\n        /* \"contracts/QuadraricSolver.sol\":2172:2181  temp != 0 */\n      eq\n        /* \"contracts/QuadraricSolver.sol\":2165:2311  while (temp != 0) {\r... */\n      tag_73\n      jumpi\n        /* \"contracts/QuadraricSolver.sol\":2198:2205  index-- */\n      dup1\n      dup1\n      tag_74\n      swap1\n      tag_75\n      jump\t// in\n    tag_74:\n      swap2\n      pop\n      pop\n        /* \"contracts/QuadraricSolver.sol\":2269:2271  10 */\n      0x0a\n        /* \"contracts/QuadraricSolver.sol\":2262:2266  temp */\n      dup6\n        /* \"contracts/QuadraricSolver.sol\":2262:2271  temp % 10 */\n      tag_76\n      swap2\n      swap1\n      tag_77\n      jump\t// in\n    tag_76:\n        /* \"contracts/QuadraricSolver.sol\":2249:2251  48 */\n      0x30\n        /* \"contracts/QuadraricSolver.sol\":2249:2272  48 + uint256(temp % 10) */\n      tag_78\n      swap2\n      swap1\n      tag_66\n      jump\t// in\n    tag_78:\n        /* \"contracts/QuadraricSolver.sol\":2236:2274  bytes1(uint8(48 + uint256(temp % 10))) */\n      0xf8\n      shl\n        /* \"contracts/QuadraricSolver.sol\":2220:2226  buffer */\n      dup3\n        /* \"contracts/QuadraricSolver.sol\":2227:2232  index */\n      dup3\n        /* \"contracts/QuadraricSolver.sol\":2220:2233  buffer[index] */\n      dup2\n      mload\n      dup2\n      lt\n      tag_79\n      jumpi\n      mstore(0x00, 0x4e487b7100000000000000000000000000000000000000000000000000000000)\n      mstore(0x04, 0x32)\n      revert(0x00, 0x24)\n    tag_79:\n      0x20\n      add\n      add\n        /* \"contracts/QuadraricSolver.sol\":2220:2274  buffer[index] = bytes1(uint8(48 + uint256(temp % 10))) */\n      swap1\n      not(0xffffffffffffffffffffffffffffffffffffffffffffffffffffffffffffff)\n      and\n      swap1\n      dup2\n      0x00\n      byte\n      swap1\n      mstore8\n      pop\n        /* \"contracts/QuadraricSolver.sol\":2297:2299  10 */\n      0x0a\n        /* \"contracts/QuadraricSolver.sol\":2289:2299  temp /= 10 */\n      dup6\n      tag_80\n      swap2\n      swap1\n      tag_31\n      jump\t// in\n    tag_80:\n      swap5\n      pop\n        /* \"contracts/QuadraricSolver.sol\":2165:2311  while (temp != 0) {\r... */\n      jump(tag_72)\n    tag_73:\n        /* \"contracts/QuadraricSolver.sol\":2325:2333  negative */\n      dup3\n        /* \"contracts/QuadraricSolver.sol\":2321:2377  if (negative) {\r... */\n      iszero\n      tag_81\n      jumpi\n        /* \"contracts/QuadraricSolver.sol\":2350:2365  buffer[0] = '-' */\n      0x2d00000000000000000000000000000000000000000000000000000000000000\n        /* \"contracts/QuadraricSolver.sol\":2350:2356  buffer */\n      dup3\n        /* \"contracts/QuadraricSolver.sol\":2357:2358  0 */\n      0x00\n        /* \"contracts/QuadraricSolver.sol\":2350:2359  buffer[0] */\n      dup2\n      mload\n      dup2\n      lt\n      tag_82\n      jumpi\n      mstore(0x00, 0x4e487b7100000000000000000000000000000000000000000000000000000000)\n      mstore(0x04, 0x32)\n      revert(0x00, 0x24)\n    tag_82:\n      0x20\n      add\n      add\n        /* \"contracts/QuadraricSolver.sol\":2350:2365  buffer[0] = '-' */\n      swap1\n      not(0xffffffffffffffffffffffffffffffffffffffffffffffffffffffffffffff)\n      and\n      swap1\n      dup2\n      0x00\n      byte\n      swap1\n      mstore8\n      pop\n        /* \"contracts/QuadraricSolver.sol\":2321:2377  if (negative) {\r... */\n    tag_81:\n        /* \"contracts/QuadraricSolver.sol\":2401:2407  buffer */\n      dup2\n        /* \"contracts/QuadraricSolver.sol\":2387:2408  return string(buffer) */\n      swap6\n      pop\n      pop\n      pop\n      pop\n      pop\n      pop\n        /* \"contracts/QuadraricSolver.sol\":1595:2416  function intToString(int256 value) internal pure returns (string memory) {\r... */\n    tag_54:\n      swap2\n      swap1\n      pop\n      jump\t// out\n        /* \"#utility.yul\":7:144   */\n    tag_84:\n      0x00\n        /* \"#utility.yul\":90:96   */\n      dup2\n        /* \"#utility.yul\":77:97   */\n      calldataload\n        /* \"#utility.yul\":68:97   */\n      swap1\n      pop\n        /* \"#utility.yul\":106:138   */\n      tag_86\n        /* \"#utility.yul\":132:137   */\n      dup2\n        /* \"#utility.yul\":106:138   */\n      tag_87\n      jump\t// in\n    tag_86:\n        /* \"#utility.yul\":58:144   */\n      swap3\n      swap2\n      pop\n      pop\n      jump\t// out\n        /* \"#utility.yul\":150:696   */\n    tag_6:\n      0x00\n      dup1\n      0x00\n        /* \"#utility.yul\":289:291   */\n      0x60\n        /* \"#utility.yul\":277:286   */\n      dup5\n        /* \"#utility.yul\":268:275   */\n      dup7\n        /* \"#utility.yul\":264:287   */\n      sub\n        /* \"#utility.yul\":260:292   */\n      slt\n        /* \"#utility.yul\":257:259   */\n      iszero\n      tag_89\n      jumpi\n        /* \"#utility.yul\":305:306   */\n      0x00\n        /* \"#utility.yul\":302:303   */\n      dup1\n        /* \"#utility.yul\":295:307   */\n      revert\n        /* \"#utility.yul\":257:259   */\n    tag_89:\n        /* \"#utility.yul\":348:349   */\n      0x00\n        /* \"#utility.yul\":373:425   */\n      tag_90\n        /* \"#utility.yul\":417:424   */\n      dup7\n        /* \"#utility.yul\":408:414   */\n      dup3\n        /* \"#utility.yul\":397:406   */\n      dup8\n        /* \"#utility.yul\":393:415   */\n      add\n        /* \"#utility.yul\":373:425   */\n      tag_84\n      jump\t// in\n    tag_90:\n        /* \"#utility.yul\":363:425   */\n      swap4\n      pop\n        /* \"#utility.yul\":319:435   */\n      pop\n        /* \"#utility.yul\":474:476   */\n      0x20\n        /* \"#utility.yul\":500:552   */\n      tag_91\n        /* \"#utility.yul\":544:551   */\n      dup7\n        /* \"#utility.yul\":535:541   */\n      dup3\n        /* \"#utility.yul\":524:533   */\n      dup8\n        /* \"#utility.yul\":520:542   */\n      add\n        /* \"#utility.yul\":500:552   */\n      tag_84\n      jump\t// in\n    tag_91:\n        /* \"#utility.yul\":490:552   */\n      swap3\n      pop\n        /* \"#utility.yul\":445:562   */\n      pop\n        /* \"#utility.yul\":601:603   */\n      0x40\n        /* \"#utility.yul\":627:679   */\n      tag_92\n        /* \"#utility.yul\":671:678   */\n      dup7\n        /* \"#utility.yul\":662:668   */\n      dup3\n        /* \"#utility.yul\":651:660   */\n      dup8\n        /* \"#utility.yul\":647:669   */\n      add\n        /* \"#utility.yul\":627:679   */\n      tag_84\n      jump\t// in\n    tag_92:\n        /* \"#utility.yul\":617:679   */\n      swap2\n      pop\n        /* \"#utility.yul\":572:689   */\n      pop\n        /* \"#utility.yul\":247:696   */\n      swap3\n      pop\n      swap3\n      pop\n      swap3\n      jump\t// out\n        /* \"#utility.yul\":702:817   */\n    tag_93:\n        /* \"#utility.yul\":787:810   */\n      tag_95\n        /* \"#utility.yul\":804:809   */\n      dup2\n        /* \"#utility.yul\":787:810   */\n      tag_96\n      jump\t// in\n    tag_95:\n        /* \"#utility.yul\":782:785   */\n      dup3\n        /* \"#utility.yul\":775:811   */\n      mstore\n        /* \"#utility.yul\":765:817   */\n      pop\n      pop\n      jump\t// out\n        /* \"#utility.yul\":823:1187   */\n    tag_97:\n      0x00\n        /* \"#utility.yul\":939:978   */\n      tag_99\n        /* \"#utility.yul\":972:977   */\n      dup3\n        /* \"#utility.yul\":939:978   */\n      tag_100\n      jump\t// in\n    tag_99:\n        /* \"#utility.yul\":994:1065   */\n      tag_101\n        /* \"#utility.yul\":1058:1064   */\n      dup2\n        /* \"#utility.yul\":1053:1056   */\n      dup6\n        /* \"#utility.yul\":994:1065   */\n      tag_102\n      jump\t// in\n    tag_101:\n        /* \"#utility.yul\":987:1065   */\n      swap4\n      pop\n        /* \"#utility.yul\":1074:1126   */\n      tag_103\n        /* \"#utility.yul\":1119:1125   */\n      dup2\n        /* \"#utility.yul\":1114:1117   */\n      dup6\n        /* \"#utility.yul\":1107:1111   */\n      0x20\n        /* \"#utility.yul\":1100:1105   */\n      dup7\n        /* \"#utility.yul\":1096:1112   */\n      add\n        /* \"#utility.yul\":1074:1126   */\n      tag_104\n      jump\t// in\n    tag_103:\n        /* \"#utility.yul\":1151:1180   */\n      tag_105\n        /* \"#utility.yul\":1173:1179   */\n      dup2\n        /* \"#utility.yul\":1151:1180   */\n      tag_106\n      jump\t// in\n    tag_105:\n        /* \"#utility.yul\":1146:1149   */\n      dup5\n        /* \"#utility.yul\":1142:1181   */\n      add\n        /* \"#utility.yul\":1135:1181   */\n      swap2\n      pop\n        /* \"#utility.yul\":915:1187   */\n      pop\n      swap3\n      swap2\n      pop\n      pop\n      jump\t// out\n        /* \"#utility.yul\":1193:1570   */\n    tag_107:\n      0x00\n        /* \"#utility.yul\":1327:1366   */\n      tag_109\n        /* \"#utility.yul\":1360:1365   */\n      dup3\n        /* \"#utility.yul\":1327:1366   */\n      tag_100\n      jump\t// in\n    tag_109:\n        /* \"#utility.yul\":1382:1471   */\n      tag_110\n        /* \"#utility.yul\":1464:1470   */\n      dup2\n        /* \"#utility.yul\":1459:1462   */\n      dup6\n        /* \"#utility.yul\":1382:1471   */\n      tag_111\n      jump\t// in\n    tag_110:\n        /* \"#utility.yul\":1375:1471   */\n      swap4\n      pop\n        /* \"#utility.yul\":1480:1532   */\n      tag_112\n        /* \"#utility.yul\":1525:1531   */\n      dup2\n        /* \"#utility.yul\":1520:1523   */\n      dup6\n        /* \"#utility.yul\":1513:1517   */\n      0x20\n        /* \"#utility.yul\":1506:1511   */\n      dup7\n        /* \"#utility.yul\":1502:1518   */\n      add\n        /* \"#utility.yul\":1480:1532   */\n      tag_104\n      jump\t// in\n    tag_112:\n        /* \"#utility.yul\":1557:1563   */\n      dup1\n        /* \"#utility.yul\":1552:1555   */\n      dup5\n        /* \"#utility.yul\":1548:1564   */\n      add\n        /* \"#utility.yul\":1541:1564   */\n      swap2\n      pop\n        /* \"#utility.yul\":1303:1570   */\n      pop\n      swap3\n      swap2\n      pop\n      pop\n      jump\t// out\n        /* \"#utility.yul\":1576:1903   */\n    tag_113:\n      0x00\n        /* \"#utility.yul\":1739:1806   */\n      tag_115\n        /* \"#utility.yul\":1803:1805   */\n      0x1d\n        /* \"#utility.yul\":1798:1801   */\n      dup4\n        /* \"#utility.yul\":1739:1806   */\n      tag_102\n      jump\t// in\n    tag_115:\n        /* \"#utility.yul\":1732:1806   */\n      swap2\n      pop\n        /* \"#utility.yul\":1836:1867   */\n      0x436f656666696369656e7420612063616e6e6f74206265207a65726f2e000000\n        /* \"#utility.yul\":1832:1833   */\n      0x00\n        /* \"#utility.yul\":1827:1830   */\n      dup4\n        /* \"#utility.yul\":1823:1834   */\n      add\n        /* \"#utility.yul\":1816:1868   */\n      mstore\n        /* \"#utility.yul\":1894:1896   */\n      0x20\n        /* \"#utility.yul\":1889:1892   */\n      dup3\n        /* \"#utility.yul\":1885:1897   */\n      add\n        /* \"#utility.yul\":1878:1897   */\n      swap1\n      pop\n        /* \"#utility.yul\":1722:1903   */\n      swap2\n      swap1\n      pop\n      jump\t// out\n        /* \"#utility.yul\":1909:2245   */\n    tag_116:\n      0x00\n        /* \"#utility.yul\":2090:2174   */\n      tag_118\n        /* \"#utility.yul\":2172:2173   */\n      0x04\n        /* \"#utility.yul\":2167:2170   */\n      dup4\n        /* \"#utility.yul\":2090:2174   */\n      tag_111\n      jump\t// in\n    tag_118:\n        /* \"#utility.yul\":2083:2174   */\n      swap2\n      pop\n        /* \"#utility.yul\":2204:2210   */\n      0x78202b2000000000000000000000000000000000000000000000000000000000\n        /* \"#utility.yul\":2200:2201   */\n      0x00\n        /* \"#utility.yul\":2195:2198   */\n      dup4\n        /* \"#utility.yul\":2191:2202   */\n      add\n        /* \"#utility.yul\":2184:2211   */\n      mstore\n        /* \"#utility.yul\":2237:2238   */\n      0x04\n        /* \"#utility.yul\":2232:2235   */\n      dup3\n        /* \"#utility.yul\":2228:2239   */\n      add\n        /* \"#utility.yul\":2221:2239   */\n      swap1\n      pop\n        /* \"#utility.yul\":2073:2245   */\n      swap2\n      swap1\n      pop\n      jump\t// out\n        /* \"#utility.yul\":2251:2580   */\n    tag_119:\n      0x00\n        /* \"#utility.yul\":2414:2481   */\n      tag_121\n        /* \"#utility.yul\":2478:2480   */\n      0x1f\n        /* \"#utility.yul\":2473:2476   */\n      dup4\n        /* \"#utility.yul\":2414:2481   */\n      tag_102\n      jump\t// in\n    tag_121:\n        /* \"#utility.yul\":2407:2481   */\n      swap2\n      pop\n        /* \"#utility.yul\":2511:2544   */\n      0x546865206571756174696f6e20686173206e6f207265616c20726f6f74732e00\n        /* \"#utility.yul\":2507:2508   */\n      0x00\n        /* \"#utility.yul\":2502:2505   */\n      dup4\n        /* \"#utility.yul\":2498:2509   */\n      add\n        /* \"#utility.yul\":2491:2545   */\n      mstore\n        /* \"#utility.yul\":2571:2573   */\n      0x20\n        /* \"#utility.yul\":2566:2569   */\n      dup3\n        /* \"#utility.yul\":2562:2574   */\n      add\n        /* \"#utility.yul\":2555:2574   */\n      swap1\n      pop\n        /* \"#utility.yul\":2397:2580   */\n      swap2\n      swap1\n      pop\n      jump\t// out\n        /* \"#utility.yul\":2586:2922   */\n    tag_122:\n      0x00\n        /* \"#utility.yul\":2767:2851   */\n      tag_124\n        /* \"#utility.yul\":2849:2850   */\n      0x04\n        /* \"#utility.yul\":2844:2847   */\n      dup4\n        /* \"#utility.yul\":2767:2851   */\n      tag_111\n      jump\t// in\n    tag_124:\n        /* \"#utility.yul\":2760:2851   */\n      swap2\n      pop\n        /* \"#utility.yul\":2881:2887   */\n      0x203d203000000000000000000000000000000000000000000000000000000000\n        /* \"#utility.yul\":2877:2878   */\n      0x00\n        /* \"#utility.yul\":2872:2875   */\n      dup4\n        /* \"#utility.yul\":2868:2879   */\n      add\n        /* \"#utility.yul\":2861:2888   */\n      mstore\n        /* \"#utility.yul\":2914:2915   */\n      0x04\n        /* \"#utility.yul\":2909:2912   */\n      dup3\n        /* \"#utility.yul\":2905:2916   */\n      add\n        /* \"#utility.yul\":2898:2916   */\n      swap1\n      pop\n        /* \"#utility.yul\":2750:2922   */\n      swap2\n      swap1\n      pop\n      jump\t// out\n        /* \"#utility.yul\":2928:3266   */\n    tag_125:\n      0x00\n        /* \"#utility.yul\":3109:3193   */\n      tag_127\n        /* \"#utility.yul\":3191:3192   */\n      0x06\n        /* \"#utility.yul\":3186:3189   */\n      dup4\n        /* \"#utility.yul\":3109:3193   */\n      tag_111\n      jump\t// in\n    tag_127:\n        /* \"#utility.yul\":3102:3193   */\n      swap2\n      pop\n        /* \"#utility.yul\":3223:3231   */\n      0x785e32202b200000000000000000000000000000000000000000000000000000\n        /* \"#utility.yul\":3219:3220   */\n      0x00\n        /* \"#utility.yul\":3214:3217   */\n      dup4\n        /* \"#utility.yul\":3210:3221   */\n      add\n        /* \"#utility.yul\":3203:3232   */\n      mstore\n        /* \"#utility.yul\":3258:3259   */\n      0x06\n        /* \"#utility.yul\":3253:3256   */\n      dup3\n        /* \"#utility.yul\":3249:3260   */\n      add\n        /* \"#utility.yul\":3242:3260   */\n      swap1\n      pop\n        /* \"#utility.yul\":3092:3266   */\n      swap2\n      swap1\n      pop\n      jump\t// out\n        /* \"#utility.yul\":3272:4665   */\n    tag_53:\n      0x00\n        /* \"#utility.yul\":3825:3920   */\n      tag_129\n        /* \"#utility.yul\":3916:3919   */\n      dup3\n        /* \"#utility.yul\":3907:3913   */\n      dup7\n        /* \"#utility.yul\":3825:3920   */\n      tag_107\n      jump\t// in\n    tag_129:\n        /* \"#utility.yul\":3818:3920   */\n      swap2\n      pop\n        /* \"#utility.yul\":3937:4085   */\n      tag_130\n        /* \"#utility.yul\":4081:4084   */\n      dup3\n        /* \"#utility.yul\":3937:4085   */\n      tag_125\n      jump\t// in\n    tag_130:\n        /* \"#utility.yul\":3930:4085   */\n      swap2\n      pop\n        /* \"#utility.yul\":4102:4197   */\n      tag_131\n        /* \"#utility.yul\":4193:4196   */\n      dup3\n        /* \"#utility.yul\":4184:4190   */\n      dup6\n        /* \"#utility.yul\":4102:4197   */\n      tag_107\n      jump\t// in\n    tag_131:\n        /* \"#utility.yul\":4095:4197   */\n      swap2\n      pop\n        /* \"#utility.yul\":4214:4362   */\n      tag_132\n        /* \"#utility.yul\":4358:4361   */\n      dup3\n        /* \"#utility.yul\":4214:4362   */\n      tag_116\n      jump\t// in\n    tag_132:\n        /* \"#utility.yul\":4207:4362   */\n      swap2\n      pop\n        /* \"#utility.yul\":4379:4474   */\n      tag_133\n        /* \"#utility.yul\":4470:4473   */\n      dup3\n        /* \"#utility.yul\":4461:4467   */\n      dup5\n        /* \"#utility.yul\":4379:4474   */\n      tag_107\n      jump\t// in\n    tag_133:\n        /* \"#utility.yul\":4372:4474   */\n      swap2\n      pop\n        /* \"#utility.yul\":4491:4639   */\n      tag_134\n        /* \"#utility.yul\":4635:4638   */\n      dup3\n        /* \"#utility.yul\":4491:4639   */\n      tag_122\n      jump\t// in\n    tag_134:\n        /* \"#utility.yul\":4484:4639   */\n      swap2\n      pop\n        /* \"#utility.yul\":4656:4659   */\n      dup2\n        /* \"#utility.yul\":4649:4659   */\n      swap1\n      pop\n        /* \"#utility.yul\":3807:4665   */\n      swap5\n      swap4\n      pop\n      pop\n      pop\n      pop\n      jump\t// out\n        /* \"#utility.yul\":4671:5196   */\n    tag_9:\n      0x00\n        /* \"#utility.yul\":4874:4876   */\n      0x60\n        /* \"#utility.yul\":4863:4872   */\n      dup3\n        /* \"#utility.yul\":4859:4877   */\n      add\n        /* \"#utility.yul\":4851:4877   */\n      swap1\n      pop\n        /* \"#utility.yul\":4923:4932   */\n      dup2\n        /* \"#utility.yul\":4917:4921   */\n      dup2\n        /* \"#utility.yul\":4913:4933   */\n      sub\n        /* \"#utility.yul\":4909:4910   */\n      0x00\n        /* \"#utility.yul\":4898:4907   */\n      dup4\n        /* \"#utility.yul\":4894:4911   */\n      add\n        /* \"#utility.yul\":4887:4934   */\n      mstore\n        /* \"#utility.yul\":4951:5029   */\n      tag_136\n        /* \"#utility.yul\":5024:5028   */\n      dup2\n        /* \"#utility.yul\":5015:5021   */\n      dup7\n        /* \"#utility.yul\":4951:5029   */\n      tag_97\n      jump\t// in\n    tag_136:\n        /* \"#utility.yul\":4943:5029   */\n      swap1\n      pop\n        /* \"#utility.yul\":5039:5109   */\n      tag_137\n        /* \"#utility.yul\":5105:5107   */\n      0x20\n        /* \"#utility.yul\":5094:5103   */\n      dup4\n        /* \"#utility.yul\":5090:5108   */\n      add\n        /* \"#utility.yul\":5081:5087   */\n      dup6\n        /* \"#utility.yul\":5039:5109   */\n      tag_93\n      jump\t// in\n    tag_137:\n        /* \"#utility.yul\":5119:5189   */\n      tag_138\n        /* \"#utility.yul\":5185:5187   */\n      0x40\n        /* \"#utility.yul\":5174:5183   */\n      dup4\n        /* \"#utility.yul\":5170:5188   */\n      add\n        /* \"#utility.yul\":5161:5167   */\n      dup5\n        /* \"#utility.yul\":5119:5189   */\n      tag_93\n      jump\t// in\n    tag_138:\n        /* \"#utility.yul\":4841:5196   */\n      swap5\n      swap4\n      pop\n      pop\n      pop\n      pop\n      jump\t// out\n        /* \"#utility.yul\":5202:5621   */\n    tag_13:\n      0x00\n        /* \"#utility.yul\":5406:5408   */\n      0x20\n        /* \"#utility.yul\":5395:5404   */\n      dup3\n        /* \"#utility.yul\":5391:5409   */\n      add\n        /* \"#utility.yul\":5383:5409   */\n      swap1\n      pop\n        /* \"#utility.yul\":5455:5464   */\n      dup2\n        /* \"#utility.yul\":5449:5453   */\n      dup2\n        /* \"#utility.yul\":5445:5465   */\n      sub\n        /* \"#utility.yul\":5441:5442   */\n      0x00\n        /* \"#utility.yul\":5430:5439   */\n      dup4\n        /* \"#utility.yul\":5426:5443   */\n      add\n        /* \"#utility.yul\":5419:5466   */\n      mstore\n        /* \"#utility.yul\":5483:5614   */\n      tag_140\n        /* \"#utility.yul\":5609:5613   */\n      dup2\n        /* \"#utility.yul\":5483:5614   */\n      tag_113\n      jump\t// in\n    tag_140:\n        /* \"#utility.yul\":5475:5614   */\n      swap1\n      pop\n        /* \"#utility.yul\":5373:5621   */\n      swap2\n      swap1\n      pop\n      jump\t// out\n        /* \"#utility.yul\":5627:6046   */\n    tag_22:\n      0x00\n        /* \"#utility.yul\":5831:5833   */\n      0x20\n        /* \"#utility.yul\":5820:5829   */\n      dup3\n        /* \"#utility.yul\":5816:5834   */\n      add\n        /* \"#utility.yul\":5808:5834   */\n      swap1\n      pop\n        /* \"#utility.yul\":5880:5889   */\n      dup2\n        /* \"#utility.yul\":5874:5878   */\n      dup2\n        /* \"#utility.yul\":5870:5890   */\n      sub\n        /* \"#utility.yul\":5866:5867   */\n      0x00\n        /* \"#utility.yul\":5855:5864   */\n      dup4\n        /* \"#utility.yul\":5851:5868   */\n      add\n        /* \"#utility.yul\":5844:5891   */\n      mstore\n        /* \"#utility.yul\":5908:6039   */\n      tag_142\n        /* \"#utility.yul\":6034:6038   */\n      dup2\n        /* \"#utility.yul\":5908:6039   */\n      tag_119\n      jump\t// in\n    tag_142:\n        /* \"#utility.yul\":5900:6039   */\n      swap1\n      pop\n        /* \"#utility.yul\":5798:6046   */\n      swap2\n      swap1\n      pop\n      jump\t// out\n        /* \"#utility.yul\":6052:6151   */\n    tag_100:\n      0x00\n        /* \"#utility.yul\":6138:6143   */\n      dup2\n        /* \"#utility.yul\":6132:6144   */\n      mload\n        /* \"#utility.yul\":6122:6144   */\n      swap1\n      pop\n        /* \"#utility.yul\":6111:6151   */\n      swap2\n      swap1\n      pop\n      jump\t// out\n        /* \"#utility.yul\":6157:6326   */\n    tag_102:\n      0x00\n        /* \"#utility.yul\":6275:6281   */\n      dup3\n        /* \"#utility.yul\":6270:6273   */\n      dup3\n        /* \"#utility.yul\":6263:6282   */\n      mstore\n        /* \"#utility.yul\":6315:6319   */\n      0x20\n        /* \"#utility.yul\":6310:6313   */\n      dup3\n        /* \"#utility.yul\":6306:6320   */\n      add\n        /* \"#utility.yul\":6291:6320   */\n      swap1\n      pop\n        /* \"#utility.yul\":6253:6326   */\n      swap3\n      swap2\n      pop\n      pop\n      jump\t// out\n        /* \"#utility.yul\":6332:6480   */\n    tag_111:\n      0x00\n        /* \"#utility.yul\":6471:6474   */\n      dup2\n        /* \"#utility.yul\":6456:6474   */\n      swap1\n      pop\n        /* \"#utility.yul\":6446:6480   */\n      swap3\n      swap2\n      pop\n      pop\n      jump\t// out\n        /* \"#utility.yul\":6486:7011   */\n    tag_29:\n      0x00\n        /* \"#utility.yul\":6544:6563   */\n      tag_147\n        /* \"#utility.yul\":6561:6562   */\n      dup3\n        /* \"#utility.yul\":6544:6563   */\n      tag_96\n      jump\t// in\n    tag_147:\n        /* \"#utility.yul\":6539:6563   */\n      swap2\n      pop\n        /* \"#utility.yul\":6577:6596   */\n      tag_148\n        /* \"#utility.yul\":6594:6595   */\n      dup4\n        /* \"#utility.yul\":6577:6596   */\n      tag_96\n      jump\t// in\n    tag_148:\n        /* \"#utility.yul\":6572:6596   */\n      swap3\n      pop\n        /* \"#utility.yul\":6765:6766   */\n      dup2\n        /* \"#utility.yul\":6697:6763   */\n      0x7fffffffffffffffffffffffffffffffffffffffffffffffffffffffffffffff\n        /* \"#utility.yul\":6693:6767   */\n      sub\n        /* \"#utility.yul\":6690:6691   */\n      dup4\n        /* \"#utility.yul\":6686:6768   */\n      sgt\n        /* \"#utility.yul\":6681:6682   */\n      0x00\n        /* \"#utility.yul\":6678:6679   */\n      dup4\n        /* \"#utility.yul\":6674:6683   */\n      slt\n        /* \"#utility.yul\":6667:6684   */\n      iszero\n        /* \"#utility.yul\":6663:6769   */\n      and\n        /* \"#utility.yul\":6660:6662   */\n      iszero\n      tag_149\n      jumpi\n        /* \"#utility.yul\":6772:6790   */\n      tag_150\n      tag_151\n      jump\t// in\n    tag_150:\n        /* \"#utility.yul\":6660:6662   */\n    tag_149:\n        /* \"#utility.yul\":6952:6953   */\n      dup2\n        /* \"#utility.yul\":6884:6950   */\n      0x8000000000000000000000000000000000000000000000000000000000000000\n        /* \"#utility.yul\":6880:6954   */\n      sub\n        /* \"#utility.yul\":6877:6878   */\n      dup4\n        /* \"#utility.yul\":6873:6955   */\n      slt\n        /* \"#utility.yul\":6869:6870   */\n      0x00\n        /* \"#utility.yul\":6866:6867   */\n      dup4\n        /* \"#utility.yul\":6862:6871   */\n      slt\n        /* \"#utility.yul\":6858:6956   */\n      and\n        /* \"#utility.yul\":6855:6857   */\n      iszero\n      tag_152\n      jumpi\n        /* \"#utility.yul\":6959:6977   */\n      tag_153\n      tag_151\n      jump\t// in\n    tag_153:\n        /* \"#utility.yul\":6855:6857   */\n    tag_152:\n        /* \"#utility.yul\":7003:7004   */\n      dup3\n        /* \"#utility.yul\":7000:7001   */\n      dup3\n        /* \"#utility.yul\":6996:7005   */\n      add\n        /* \"#utility.yul\":6989:7005   */\n      swap1\n      pop\n        /* \"#utility.yul\":6529:7011   */\n      swap3\n      swap2\n      pop\n      pop\n      jump\t// out\n        /* \"#utility.yul\":7017:7322   */\n    tag_66:\n      0x00\n        /* \"#utility.yul\":7076:7096   */\n      tag_155\n        /* \"#utility.yul\":7094:7095   */\n      dup3\n        /* \"#utility.yul\":7076:7096   */\n      tag_156\n      jump\t// in\n    tag_155:\n        /* \"#utility.yul\":7071:7096   */\n      swap2\n      pop\n        /* \"#utility.yul\":7110:7130   */\n      tag_157\n        /* \"#utility.yul\":7128:7129   */\n      dup4\n        /* \"#utility.yul\":7110:7130   */\n      tag_156\n      jump\t// in\n    tag_157:\n        /* \"#utility.yul\":7105:7130   */\n      swap3\n      pop\n        /* \"#utility.yul\":7264:7265   */\n      dup3\n        /* \"#utility.yul\":7196:7262   */\n      0xffffffffffffffffffffffffffffffffffffffffffffffffffffffffffffffff\n        /* \"#utility.yul\":7192:7266   */\n      sub\n        /* \"#utility.yul\":7189:7190   */\n      dup3\n        /* \"#utility.yul\":7186:7267   */\n      gt\n        /* \"#utility.yul\":7183:7185   */\n      iszero\n      tag_158\n      jumpi\n        /* \"#utility.yul\":7270:7288   */\n      tag_159\n      tag_151\n      jump\t// in\n    tag_159:\n        /* \"#utility.yul\":7183:7185   */\n    tag_158:\n        /* \"#utility.yul\":7314:7315   */\n      dup3\n        /* \"#utility.yul\":7311:7312   */\n      dup3\n        /* \"#utility.yul\":7307:7316   */\n      add\n        /* \"#utility.yul\":7300:7316   */\n      swap1\n      pop\n        /* \"#utility.yul\":7061:7322   */\n      swap3\n      swap2\n      pop\n      pop\n      jump\t// out\n        /* \"#utility.yul\":7328:7713   */\n    tag_31:\n      0x00\n        /* \"#utility.yul\":7384:7403   */\n      tag_161\n        /* \"#utility.yul\":7401:7402   */\n      dup3\n        /* \"#utility.yul\":7384:7403   */\n      tag_96\n      jump\t// in\n    tag_161:\n        /* \"#utility.yul\":7379:7403   */\n      swap2\n      pop\n        /* \"#utility.yul\":7417:7436   */\n      tag_162\n        /* \"#utility.yul\":7434:7435   */\n      dup4\n        /* \"#utility.yul\":7417:7436   */\n      tag_96\n      jump\t// in\n    tag_162:\n        /* \"#utility.yul\":7412:7436   */\n      swap3\n      pop\n        /* \"#utility.yul\":7455:7456   */\n      dup3\n        /* \"#utility.yul\":7445:7447   */\n      tag_163\n      jumpi\n        /* \"#utility.yul\":7460:7478   */\n      tag_164\n      tag_165\n      jump\t// in\n    tag_164:\n        /* \"#utility.yul\":7445:7447   */\n    tag_163:\n        /* \"#utility.yul\":7646:7647   */\n      0x01\n        /* \"#utility.yul\":7643:7644   */\n      0x00\n        /* \"#utility.yul\":7639:7648   */\n      sub\n        /* \"#utility.yul\":7636:7637   */\n      dup4\n        /* \"#utility.yul\":7633:7649   */\n      eq\n        /* \"#utility.yul\":7552:7618   */\n      0x8000000000000000000000000000000000000000000000000000000000000000\n        /* \"#utility.yul\":7549:7550   */\n      dup4\n        /* \"#utility.yul\":7546:7619   */\n      eq\n        /* \"#utility.yul\":7529:7659   */\n      and\n        /* \"#utility.yul\":7526:7528   */\n      iszero\n      tag_166\n      jumpi\n        /* \"#utility.yul\":7662:7680   */\n      tag_167\n      tag_151\n      jump\t// in\n    tag_167:\n        /* \"#utility.yul\":7526:7528   */\n    tag_166:\n        /* \"#utility.yul\":7705:7706   */\n      dup3\n        /* \"#utility.yul\":7702:7703   */\n      dup3\n        /* \"#utility.yul\":7697:7707   */\n      sdiv\n        /* \"#utility.yul\":7692:7707   */\n      swap1\n      pop\n        /* \"#utility.yul\":7369:7713   */\n      swap3\n      swap2\n      pop\n      pop\n      jump\t// out\n        /* \"#utility.yul\":7719:8710   */\n    tag_15:\n      0x00\n        /* \"#utility.yul\":7781:7800   */\n      tag_169\n        /* \"#utility.yul\":7798:7799   */\n      dup3\n        /* \"#utility.yul\":7781:7800   */\n      tag_96\n      jump\t// in\n    tag_169:\n        /* \"#utility.yul\":7776:7800   */\n      swap2\n      pop\n        /* \"#utility.yul\":7814:7833   */\n      tag_170\n        /* \"#utility.yul\":7831:7832   */\n      dup4\n        /* \"#utility.yul\":7814:7833   */\n      tag_96\n      jump\t// in\n    tag_170:\n        /* \"#utility.yul\":7809:7833   */\n      swap3\n      pop\n        /* \"#utility.yul\":8015:8016   */\n      dup3\n        /* \"#utility.yul\":7947:8013   */\n      0x7fffffffffffffffffffffffffffffffffffffffffffffffffffffffffffffff\n        /* \"#utility.yul\":7943:8017   */\n      div\n        /* \"#utility.yul\":7940:7941   */\n      dup3\n        /* \"#utility.yul\":7937:8018   */\n      gt\n        /* \"#utility.yul\":7932:7933   */\n      0x00\n        /* \"#utility.yul\":7929:7930   */\n      dup5\n        /* \"#utility.yul\":7925:7934   */\n      sgt\n        /* \"#utility.yul\":7921:7922   */\n      0x00\n        /* \"#utility.yul\":7918:7919   */\n      dup5\n        /* \"#utility.yul\":7914:7923   */\n      sgt\n        /* \"#utility.yul\":7910:7935   */\n      and\n        /* \"#utility.yul\":7906:8019   */\n      and\n        /* \"#utility.yul\":7903:7905   */\n      iszero\n      tag_171\n      jumpi\n        /* \"#utility.yul\":8022:8040   */\n      tag_172\n      tag_151\n      jump\t// in\n    tag_172:\n        /* \"#utility.yul\":7903:7905   */\n    tag_171:\n        /* \"#utility.yul\":8226:8227   */\n      dup2\n        /* \"#utility.yul\":8158:8224   */\n      0x8000000000000000000000000000000000000000000000000000000000000000\n        /* \"#utility.yul\":8153:8228   */\n      sdiv\n        /* \"#utility.yul\":8150:8151   */\n      dup4\n        /* \"#utility.yul\":8146:8229   */\n      slt\n        /* \"#utility.yul\":8141:8142   */\n      0x00\n        /* \"#utility.yul\":8138:8139   */\n      dup5\n        /* \"#utility.yul\":8134:8143   */\n      slt\n        /* \"#utility.yul\":8130:8131   */\n      0x00\n        /* \"#utility.yul\":8127:8128   */\n      dup5\n        /* \"#utility.yul\":8123:8132   */\n      sgt\n        /* \"#utility.yul\":8119:8144   */\n      and\n        /* \"#utility.yul\":8115:8230   */\n      and\n        /* \"#utility.yul\":8112:8114   */\n      iszero\n      tag_173\n      jumpi\n        /* \"#utility.yul\":8233:8251   */\n      tag_174\n      tag_151\n      jump\t// in\n    tag_174:\n        /* \"#utility.yul\":8112:8114   */\n    tag_173:\n        /* \"#utility.yul\":8437:8438   */\n      dup3\n        /* \"#utility.yul\":8369:8435   */\n      0x8000000000000000000000000000000000000000000000000000000000000000\n        /* \"#utility.yul\":8364:8439   */\n      sdiv\n        /* \"#utility.yul\":8361:8362   */\n      dup3\n        /* \"#utility.yul\":8357:8440   */\n      slt\n        /* \"#utility.yul\":8352:8353   */\n      0x00\n        /* \"#utility.yul\":8349:8350   */\n      dup5\n        /* \"#utility.yul\":8345:8354   */\n      sgt\n        /* \"#utility.yul\":8341:8342   */\n      0x00\n        /* \"#utility.yul\":8338:8339   */\n      dup5\n        /* \"#utility.yul\":8334:8343   */\n      slt\n        /* \"#utility.yul\":8330:8355   */\n      and\n        /* \"#utility.yul\":8326:8441   */\n      and\n        /* \"#utility.yul\":8323:8325   */\n      iszero\n      tag_175\n      jumpi\n        /* \"#utility.yul\":8444:8462   */\n      tag_176\n      tag_151\n      jump\t// in\n    tag_176:\n        /* \"#utility.yul\":8323:8325   */\n    tag_175:\n        /* \"#utility.yul\":8647:8648   */\n      dup3\n        /* \"#utility.yul\":8579:8645   */\n      0x7fffffffffffffffffffffffffffffffffffffffffffffffffffffffffffffff\n        /* \"#utility.yul\":8574:8649   */\n      sdiv\n        /* \"#utility.yul\":8571:8572   */\n      dup3\n        /* \"#utility.yul\":8567:8650   */\n      slt\n        /* \"#utility.yul\":8562:8563   */\n      0x00\n        /* \"#utility.yul\":8559:8560   */\n      dup5\n        /* \"#utility.yul\":8555:8564   */\n      slt\n        /* \"#utility.yul\":8551:8552   */\n      0x00\n        /* \"#utility.yul\":8548:8549   */\n      dup5\n        /* \"#utility.yul\":8544:8553   */\n      slt\n        /* \"#utility.yul\":8540:8565   */\n      and\n        /* \"#utility.yul\":8536:8651   */\n      and\n        /* \"#utility.yul\":8533:8535   */\n      iszero\n      tag_177\n      jumpi\n        /* \"#utility.yul\":8654:8672   */\n      tag_178\n      tag_151\n      jump\t// in\n    tag_178:\n        /* \"#utility.yul\":8533:8535   */\n    tag_177:\n        /* \"#utility.yul\":8702:8703   */\n      dup3\n        /* \"#utility.yul\":8699:8700   */\n      dup3\n        /* \"#utility.yul\":8695:8704   */\n      mul\n        /* \"#utility.yul\":8684:8704   */\n      swap1\n      pop\n        /* \"#utility.yul\":7766:8710   */\n      swap3\n      swap2\n      pop\n      pop\n      jump\t// out\n        /* \"#utility.yul\":8716:9243   */\n    tag_19:\n      0x00\n        /* \"#utility.yul\":8775:8794   */\n      tag_180\n        /* \"#utility.yul\":8792:8793   */\n      dup3\n        /* \"#utility.yul\":8775:8794   */\n      tag_96\n      jump\t// in\n    tag_180:\n        /* \"#utility.yul\":8770:8794   */\n      swap2\n      pop\n        /* \"#utility.yul\":8808:8827   */\n      tag_181\n        /* \"#utility.yul\":8825:8826   */\n      dup4\n        /* \"#utility.yul\":8808:8827   */\n      tag_96\n      jump\t// in\n    tag_181:\n        /* \"#utility.yul\":8803:8827   */\n      swap3\n      pop\n        /* \"#utility.yul\":8997:8998   */\n      dup3\n        /* \"#utility.yul\":8929:8995   */\n      0x8000000000000000000000000000000000000000000000000000000000000000\n        /* \"#utility.yul\":8925:8999   */\n      add\n        /* \"#utility.yul\":8922:8923   */\n      dup3\n        /* \"#utility.yul\":8918:9000   */\n      slt\n        /* \"#utility.yul\":8913:8914   */\n      0x00\n        /* \"#utility.yul\":8910:8911   */\n      dup5\n        /* \"#utility.yul\":8906:8915   */\n      slt\n        /* \"#utility.yul\":8899:8916   */\n      iszero\n        /* \"#utility.yul\":8895:9001   */\n      and\n        /* \"#utility.yul\":8892:8894   */\n      iszero\n      tag_182\n      jumpi\n        /* \"#utility.yul\":9004:9022   */\n      tag_183\n      tag_151\n      jump\t// in\n    tag_183:\n        /* \"#utility.yul\":8892:8894   */\n    tag_182:\n        /* \"#utility.yul\":9183:9184   */\n      dup3\n        /* \"#utility.yul\":9115:9181   */\n      0x7fffffffffffffffffffffffffffffffffffffffffffffffffffffffffffffff\n        /* \"#utility.yul\":9111:9185   */\n      add\n        /* \"#utility.yul\":9108:9109   */\n      dup3\n        /* \"#utility.yul\":9104:9186   */\n      sgt\n        /* \"#utility.yul\":9100:9101   */\n      0x00\n        /* \"#utility.yul\":9097:9098   */\n      dup5\n        /* \"#utility.yul\":9093:9102   */\n      slt\n        /* \"#utility.yul\":9089:9187   */\n      and\n        /* \"#utility.yul\":9086:9088   */\n      iszero\n      tag_184\n      jumpi\n        /* \"#utility.yul\":9190:9208   */\n      tag_185\n      tag_151\n      jump\t// in\n    tag_185:\n        /* \"#utility.yul\":9086:9088   */\n    tag_184:\n        /* \"#utility.yul\":9235:9236   */\n      dup3\n        /* \"#utility.yul\":9232:9233   */\n      dup3\n        /* \"#utility.yul\":9228:9237   */\n      sub\n        /* \"#utility.yul\":9220:9237   */\n      swap1\n      pop\n        /* \"#utility.yul\":8760:9243   */\n      swap3\n      swap2\n      pop\n      pop\n      jump\t// out\n        /* \"#utility.yul\":9249:9325   */\n    tag_96:\n      0x00\n        /* \"#utility.yul\":9314:9319   */\n      dup2\n        /* \"#utility.yul\":9303:9319   */\n      swap1\n      pop\n        /* \"#utility.yul\":9293:9325   */\n      swap2\n      swap1\n      pop\n      jump\t// out\n        /* \"#utility.yul\":9331:9408   */\n    tag_156:\n      0x00\n        /* \"#utility.yul\":9397:9402   */\n      dup2\n        /* \"#utility.yul\":9386:9402   */\n      swap1\n      pop\n        /* \"#utility.yul\":9376:9408   */\n      swap2\n      swap1\n      pop\n      jump\t// out\n        /* \"#utility.yul\":9414:9721   */\n    tag_104:\n        /* \"#utility.yul\":9482:9483   */\n      0x00\n        /* \"#utility.yul\":9492:9605   */\n    tag_189:\n        /* \"#utility.yul\":9506:9512   */\n      dup4\n        /* \"#utility.yul\":9503:9504   */\n      dup2\n        /* \"#utility.yul\":9500:9513   */\n      lt\n        /* \"#utility.yul\":9492:9605   */\n      iszero\n      tag_191\n      jumpi\n        /* \"#utility.yul\":9591:9592   */\n      dup1\n        /* \"#utility.yul\":9586:9589   */\n      dup3\n        /* \"#utility.yul\":9582:9593   */\n      add\n        /* \"#utility.yul\":9576:9594   */\n      mload\n        /* \"#utility.yul\":9572:9573   */\n      dup2\n        /* \"#utility.yul\":9567:9570   */\n      dup5\n        /* \"#utility.yul\":9563:9574   */\n      add\n        /* \"#utility.yul\":9556:9595   */\n      mstore\n        /* \"#utility.yul\":9528:9530   */\n      0x20\n        /* \"#utility.yul\":9525:9526   */\n      dup2\n        /* \"#utility.yul\":9521:9531   */\n      add\n        /* \"#utility.yul\":9516:9531   */\n      swap1\n      pop\n        /* \"#utility.yul\":9492:9605   */\n      jump(tag_189)\n    tag_191:\n        /* \"#utility.yul\":9623:9629   */\n      dup4\n        /* \"#utility.yul\":9620:9621   */\n      dup2\n        /* \"#utility.yul\":9617:9630   */\n      gt\n        /* \"#utility.yul\":9614:9616   */\n      iszero\n      tag_192\n      jumpi\n        /* \"#utility.yul\":9703:9704   */\n      0x00\n        /* \"#utility.yul\":9694:9700   */\n      dup5\n        /* \"#utility.yul\":9689:9692   */\n      dup5\n        /* \"#utility.yul\":9685:9701   */\n      add\n        /* \"#utility.yul\":9678:9705   */\n      mstore\n        /* \"#utility.yul\":9614:9616   */\n    tag_192:\n        /* \"#utility.yul\":9463:9721   */\n      pop\n      pop\n      pop\n      pop\n      jump\t// out\n        /* \"#utility.yul\":9727:9898   */\n    tag_75:\n      0x00\n        /* \"#utility.yul\":9789:9813   */\n      tag_194\n        /* \"#utility.yul\":9807:9812   */\n      dup3\n        /* \"#utility.yul\":9789:9813   */\n      tag_156\n      jump\t// in\n    tag_194:\n        /* \"#utility.yul\":9780:9813   */\n      swap2\n      pop\n        /* \"#utility.yul\":9835:9839   */\n      0x00\n        /* \"#utility.yul\":9828:9833   */\n      dup3\n        /* \"#utility.yul\":9825:9840   */\n      eq\n        /* \"#utility.yul\":9822:9824   */\n      iszero\n      tag_195\n      jumpi\n        /* \"#utility.yul\":9843:9861   */\n      tag_196\n      tag_151\n      jump\t// in\n    tag_196:\n        /* \"#utility.yul\":9822:9824   */\n    tag_195:\n        /* \"#utility.yul\":9890:9891   */\n      0x01\n        /* \"#utility.yul\":9883:9888   */\n      dup3\n        /* \"#utility.yul\":9879:9892   */\n      sub\n        /* \"#utility.yul\":9872:9892   */\n      swap1\n      pop\n        /* \"#utility.yul\":9770:9898   */\n      swap2\n      swap1\n      pop\n      jump\t// out\n        /* \"#utility.yul\":9904:10137   */\n    tag_61:\n      0x00\n        /* \"#utility.yul\":9966:9990   */\n      tag_198\n        /* \"#utility.yul\":9984:9989   */\n      dup3\n        /* \"#utility.yul\":9966:9990   */\n      tag_156\n      jump\t// in\n    tag_198:\n        /* \"#utility.yul\":9957:9990   */\n      swap2\n      pop\n        /* \"#utility.yul\":10012:10078   */\n      0xffffffffffffffffffffffffffffffffffffffffffffffffffffffffffffffff\n        /* \"#utility.yul\":10005:10010   */\n      dup3\n        /* \"#utility.yul\":10002:10079   */\n      eq\n        /* \"#utility.yul\":9999:10001   */\n      iszero\n      tag_199\n      jumpi\n        /* \"#utility.yul\":10082:10100   */\n      tag_200\n      tag_151\n      jump\t// in\n    tag_200:\n        /* \"#utility.yul\":9999:10001   */\n    tag_199:\n        /* \"#utility.yul\":10129:10130   */\n      0x01\n        /* \"#utility.yul\":10122:10127   */\n      dup3\n        /* \"#utility.yul\":10118:10131   */\n      add\n        /* \"#utility.yul\":10111:10131   */\n      swap1\n      pop\n        /* \"#utility.yul\":9947:10137   */\n      swap2\n      swap1\n      pop\n      jump\t// out\n        /* \"#utility.yul\":10143:10317   */\n    tag_77:\n      0x00\n        /* \"#utility.yul\":10191:10210   */\n      tag_202\n        /* \"#utility.yul\":10208:10209   */\n      dup3\n        /* \"#utility.yul\":10191:10210   */\n      tag_96\n      jump\t// in\n    tag_202:\n        /* \"#utility.yul\":10186:10210   */\n      swap2\n      pop\n        /* \"#utility.yul\":10224:10243   */\n      tag_203\n        /* \"#utility.yul\":10241:10242   */\n      dup4\n        /* \"#utility.yul\":10224:10243   */\n      tag_96\n      jump\t// in\n    tag_203:\n        /* \"#utility.yul\":10219:10243   */\n      swap3\n      pop\n        /* \"#utility.yul\":10262:10263   */\n      dup3\n        /* \"#utility.yul\":10252:10254   */\n      tag_204\n      jumpi\n        /* \"#utility.yul\":10267:10285   */\n      tag_205\n      tag_165\n      jump\t// in\n    tag_205:\n        /* \"#utility.yul\":10252:10254   */\n    tag_204:\n        /* \"#utility.yul\":10309:10310   */\n      dup3\n        /* \"#utility.yul\":10306:10307   */\n      dup3\n        /* \"#utility.yul\":10301:10311   */\n      smod\n        /* \"#utility.yul\":10296:10311   */\n      swap1\n      pop\n        /* \"#utility.yul\":10176:10317   */\n      swap3\n      swap2\n      pop\n      pop\n      jump\t// out\n        /* \"#utility.yul\":10323:10551   */\n    tag_27:\n      0x00\n        /* \"#utility.yul\":10381:10404   */\n      tag_207\n        /* \"#utility.yul\":10398:10403   */\n      dup3\n        /* \"#utility.yul\":10381:10404   */\n      tag_96\n      jump\t// in\n    tag_207:\n        /* \"#utility.yul\":10372:10404   */\n      swap2\n      pop\n        /* \"#utility.yul\":10426:10492   */\n      0x8000000000000000000000000000000000000000000000000000000000000000\n        /* \"#utility.yul\":10419:10424   */\n      dup3\n        /* \"#utility.yul\":10416:10493   */\n      eq\n        /* \"#utility.yul\":10413:10415   */\n      iszero\n      tag_208\n      jumpi\n        /* \"#utility.yul\":10496:10514   */\n      tag_209\n      tag_151\n      jump\t// in\n    tag_209:\n        /* \"#utility.yul\":10413:10415   */\n    tag_208:\n        /* \"#utility.yul\":10539:10544   */\n      dup2\n        /* \"#utility.yul\":10536:10537   */\n      0x00\n        /* \"#utility.yul\":10532:10545   */\n      sub\n        /* \"#utility.yul\":10525:10545   */\n      swap1\n      pop\n        /* \"#utility.yul\":10362:10551   */\n      swap2\n      swap1\n      pop\n      jump\t// out\n        /* \"#utility.yul\":10557:10737   */\n    tag_151:\n        /* \"#utility.yul\":10605:10682   */\n      0x4e487b7100000000000000000000000000000000000000000000000000000000\n        /* \"#utility.yul\":10602:10603   */\n      0x00\n        /* \"#utility.yul\":10595:10683   */\n      mstore\n        /* \"#utility.yul\":10702:10706   */\n      0x11\n        /* \"#utility.yul\":10699:10700   */\n      0x04\n        /* \"#utility.yul\":10692:10707   */\n      mstore\n        /* \"#utility.yul\":10726:10730   */\n      0x24\n        /* \"#utility.yul\":10723:10724   */\n      0x00\n        /* \"#utility.yul\":10716:10731   */\n      revert\n        /* \"#utility.yul\":10743:10923   */\n    tag_165:\n        /* \"#utility.yul\":10791:10868   */\n      0x4e487b7100000000000000000000000000000000000000000000000000000000\n        /* \"#utility.yul\":10788:10789   */\n      0x00\n        /* \"#utility.yul\":10781:10869   */\n      mstore\n        /* \"#utility.yul\":10888:10892   */\n      0x12\n        /* \"#utility.yul\":10885:10886   */\n      0x04\n        /* \"#utility.yul\":10878:10893   */\n      mstore\n        /* \"#utility.yul\":10912:10916   */\n      0x24\n        /* \"#utility.yul\":10909:10910   */\n      0x00\n        /* \"#utility.yul\":10902:10917   */\n      revert\n        /* \"#utility.yul\":10929:11031   */\n    tag_106:\n      0x00\n        /* \"#utility.yul\":11021:11023   */\n      0x1f\n        /* \"#utility.yul\":11017:11024   */\n      not\n        /* \"#utility.yul\":11012:11014   */\n      0x1f\n        /* \"#utility.yul\":11005:11010   */\n      dup4\n        /* \"#utility.yul\":11001:11015   */\n      add\n        /* \"#utility.yul\":10997:11025   */\n      and\n        /* \"#utility.yul\":10987:11025   */\n      swap1\n      pop\n        /* \"#utility.yul\":10977:11031   */\n      swap2\n      swap1\n      pop\n      jump\t// out\n        /* \"#utility.yul\":11037:11157   */\n    tag_87:\n        /* \"#utility.yul\":11109:11132   */\n      tag_214\n        /* \"#utility.yul\":11126:11131   */\n      dup2\n        /* \"#utility.yul\":11109:11132   */\n      tag_96\n      jump\t// in\n    tag_214:\n        /* \"#utility.yul\":11102:11107   */\n      dup2\n        /* \"#utility.yul\":11099:11133   */\n      eq\n        /* \"#utility.yul\":11089:11091   */\n      tag_215\n      jumpi\n        /* \"#utility.yul\":11147:11148   */\n      0x00\n        /* \"#utility.yul\":11144:11145   */\n      dup1\n        /* \"#utility.yul\":11137:11149   */\n      revert\n        /* \"#utility.yul\":11089:11091   */\n    tag_215:\n        /* \"#utility.yul\":11079:11157   */\n      pop\n      jump\t// out\n\n    auxdata: 0xa2646970667358221220ef24f78b36d383649adab476a975101c511758f4e5fdde011cb04ee2d3ba2b0664736f6c63430008000033\n}\n",
				"bytecode": {
					"linkReferences": {},
					"object": "608060405234801561001057600080fd5b50610d20806100206000396000f3fe608060405234801561001057600080fd5b506004361061002b5760003560e01c8063872339bd14610030575b600080fd5b61004a60048036038101906100459190610532565b610062565b6040516100599392919061078c565b60405180910390f35b606060008060008614156100ab576040517f08c379a00000000000000000000000000000000000000000000000000000000081526004016100a2906107ca565b60405180910390fd5b6000848760046100bb9190610985565b6100c59190610985565b86876100d19190610985565b6100db9190610a9c565b90506000811215610121576040517f08c379a0000000000000000000000000000000000000000000000000000000008152600401610118906107ea565b60405180910390fd5b600061012c826101ae565b9050600088600261013d9190610985565b9050600081838a61014d90610c1b565b6101579190610831565b610161919061091b565b9050600082848b61017190610c1b565b61017b9190610a9c565b610185919061091b565b905060006101948c8c8c61023b565b905080838398509850985050505050505093509350939050565b6000808214156101c15760009050610236565b600382116101d25760019050610236565b6000829050600060016002836101e8919061091b565b6101f29190610831565b905060008290505b8082121561022f578190506002828385610214919061091b565b61021e9190610831565b610228919061091b565b91506101fa565b8093505050505b919050565b606061024684610282565b61024f84610282565b61025884610282565b60405160200161026a9392919061073a565b60405160208183030381529060405290509392505050565b606060008214156102ca576040518060400160405280600181526020017f30000000000000000000000000000000000000000000000000000000000000008152509050610518565b60008290506000806000905060008312156102f05760019050826102ed90610c1b565b92505b5b6000831461031b57818061030490610ba1565b925050600a83610314919061091b565b92506102f1565b60008161032957600061032c565b60015b60ff168361033a91906108c5565b67ffffffffffffffff811115610379577f4e487b7100000000000000000000000000000000000000000000000000000000600052604160045260246000fd5b6040519080825280601f01601f1916602001820160405280156103ab5781602001600182028036833780820191505090505b509050600081519050600087126103c257866103cd565b866103cc90610c1b565b5b94505b6000851461047e5780806103e390610b77565b915050600a856103f39190610bea565b60306103ff91906108c5565b60f81b82828151811061043b577f4e487b7100000000000000000000000000000000000000000000000000000000600052603260045260246000fd5b60200101907effffffffffffffffffffffffffffffffffffffffffffffffffffffffffffff1916908160001a905350600a85610477919061091b565b94506103d0565b821561050f577f2d00000000000000000000000000000000000000000000000000000000000000826000815181106104df577f4e487b7100000000000000000000000000000000000000000000000000000000600052603260045260246000fd5b60200101907effffffffffffffffffffffffffffffffffffffffffffffffffffffffffffff1916908160001a9053505b81955050505050505b919050565b60008135905061052c81610cd3565b92915050565b60008060006060848603121561054757600080fd5b60006105558682870161051d565b93505060206105668682870161051d565b92505060406105778682870161051d565b9150509250925092565b61058a81610b30565b82525050565b600061059b8261080a565b6105a58185610815565b93506105b5818560208601610b44565b6105be81610cc2565b840191505092915050565b60006105d48261080a565b6105de8185610826565b93506105ee818560208601610b44565b80840191505092915050565b6000610607601d83610815565b91507f436f656666696369656e7420612063616e6e6f74206265207a65726f2e0000006000830152602082019050919050565b6000610647600483610826565b91507f78202b20000000000000000000000000000000000000000000000000000000006000830152600482019050919050565b6000610687601f83610815565b91507f546865206571756174696f6e20686173206e6f207265616c20726f6f74732e006000830152602082019050919050565b60006106c7600483610826565b91507f203d2030000000000000000000000000000000000000000000000000000000006000830152600482019050919050565b6000610707600683610826565b91507f785e32202b2000000000000000000000000000000000000000000000000000006000830152600682019050919050565b600061074682866105c9565b9150610751826106fa565b915061075d82856105c9565b91506107688261063a565b915061077482846105c9565b915061077f826106ba565b9150819050949350505050565b600060608201905081810360008301526107a68186610590565b90506107b56020830185610581565b6107c26040830184610581565b949350505050565b600060208201905081810360008301526107e3816105fa565b9050919050565b600060208201905081810360008301526108038161067a565b9050919050565b600081519050919050565b600082825260208201905092915050565b600081905092915050565b600061083c82610b30565b915061084783610b30565b9250817f7fffffffffffffffffffffffffffffffffffffffffffffffffffffffffffffff0383136000831215161561088257610881610c64565b5b817f80000000000000000000000000000000000000000000000000000000000000000383126000831216156108ba576108b9610c64565b5b828201905092915050565b60006108d082610b3a565b91506108db83610b3a565b9250827fffffffffffffffffffffffffffffffffffffffffffffffffffffffffffffffff038211156109105761090f610c64565b5b828201905092915050565b600061092682610b30565b915061093183610b30565b92508261094157610940610c93565b5b600160000383147f80000000000000000000000000000000000000000000000000000000000000008314161561097a57610979610c64565b5b828205905092915050565b600061099082610b30565b915061099b83610b30565b9250827f7fffffffffffffffffffffffffffffffffffffffffffffffffffffffffffffff04821160008413600084131616156109da576109d9610c64565b5b817f80000000000000000000000000000000000000000000000000000000000000000583126000841260008413161615610a1757610a16610c64565b5b827f80000000000000000000000000000000000000000000000000000000000000000582126000841360008412161615610a5457610a53610c64565b5b827f7fffffffffffffffffffffffffffffffffffffffffffffffffffffffffffffff0582126000841260008412161615610a9157610a90610c64565b5b828202905092915050565b6000610aa782610b30565b9150610ab283610b30565b9250827f800000000000000000000000000000000000000000000000000000000000000001821260008412151615610aed57610aec610c64565b5b827f7fffffffffffffffffffffffffffffffffffffffffffffffffffffffffffffff018213600084121615610b2557610b24610c64565b5b828203905092915050565b6000819050919050565b6000819050919050565b60005b83811015610b62578082015181840152602081019050610b47565b83811115610b71576000848401525b50505050565b6000610b8282610b3a565b91506000821415610b9657610b95610c64565b5b600182039050919050565b6000610bac82610b3a565b91507fffffffffffffffffffffffffffffffffffffffffffffffffffffffffffffffff821415610bdf57610bde610c64565b5b600182019050919050565b6000610bf582610b30565b9150610c0083610b30565b925082610c1057610c0f610c93565b5b828207905092915050565b6000610c2682610b30565b91507f8000000000000000000000000000000000000000000000000000000000000000821415610c5957610c58610c64565b5b816000039050919050565b7f4e487b7100000000000000000000000000000000000000000000000000000000600052601160045260246000fd5b7f4e487b7100000000000000000000000000000000000000000000000000000000600052601260045260246000fd5b6000601f19601f8301169050919050565b610cdc81610b30565b8114610ce757600080fd5b5056fea2646970667358221220ef24f78b36d383649adab476a975101c511758f4e5fdde011cb04ee2d3ba2b0664736f6c63430008000033",
					"opcodes": "PUSH1 0x80 PUSH1 0x40 MSTORE CALLVALUE DUP1 ISZERO PUSH2 0x10 JUMPI PUSH1 0x0 DUP1 REVERT JUMPDEST POP PUSH2 0xD20 DUP1 PUSH2 0x20 PUSH1 0x0 CODECOPY PUSH1 0x0 RETURN INVALID PUSH1 0x80 PUSH1 0x40 MSTORE CALLVALUE DUP1 ISZERO PUSH2 0x10 JUMPI PUSH1 0x0 DUP1 REVERT JUMPDEST POP PUSH1 0x4 CALLDATASIZE LT PUSH2 0x2B JUMPI PUSH1 0x0 CALLDATALOAD PUSH1 0xE0 SHR DUP1 PUSH4 0x872339BD EQ PUSH2 0x30 JUMPI JUMPDEST PUSH1 0x0 DUP1 REVERT JUMPDEST PUSH2 0x4A PUSH1 0x4 DUP1 CALLDATASIZE SUB DUP2 ADD SWAP1 PUSH2 0x45 SWAP2 SWAP1 PUSH2 0x532 JUMP JUMPDEST PUSH2 0x62 JUMP JUMPDEST PUSH1 0x40 MLOAD PUSH2 0x59 SWAP4 SWAP3 SWAP2 SWAP1 PUSH2 0x78C JUMP JUMPDEST PUSH1 0x40 MLOAD DUP1 SWAP2 SUB SWAP1 RETURN JUMPDEST PUSH1 0x60 PUSH1 0x0 DUP1 PUSH1 0x0 DUP7 EQ ISZERO PUSH2 0xAB JUMPI PUSH1 0x40 MLOAD PUSH32 0x8C379A000000000000000000000000000000000000000000000000000000000 DUP2 MSTORE PUSH1 0x4 ADD PUSH2 0xA2 SWAP1 PUSH2 0x7CA JUMP JUMPDEST PUSH1 0x40 MLOAD DUP1 SWAP2 SUB SWAP1 REVERT JUMPDEST PUSH1 0x0 DUP5 DUP8 PUSH1 0x4 PUSH2 0xBB SWAP2 SWAP1 PUSH2 0x985 JUMP JUMPDEST PUSH2 0xC5 SWAP2 SWAP1 PUSH2 0x985 JUMP JUMPDEST DUP7 DUP8 PUSH2 0xD1 SWAP2 SWAP1 PUSH2 0x985 JUMP JUMPDEST PUSH2 0xDB SWAP2 SWAP1 PUSH2 0xA9C JUMP JUMPDEST SWAP1 POP PUSH1 0x0 DUP2 SLT ISZERO PUSH2 0x121 JUMPI PUSH1 0x40 MLOAD PUSH32 0x8C379A000000000000000000000000000000000000000000000000000000000 DUP2 MSTORE PUSH1 0x4 ADD PUSH2 0x118 SWAP1 PUSH2 0x7EA JUMP JUMPDEST PUSH1 0x40 MLOAD DUP1 SWAP2 SUB SWAP1 REVERT JUMPDEST PUSH1 0x0 PUSH2 0x12C DUP3 PUSH2 0x1AE JUMP JUMPDEST SWAP1 POP PUSH1 0x0 DUP9 PUSH1 0x2 PUSH2 0x13D SWAP2 SWAP1 PUSH2 0x985 JUMP JUMPDEST SWAP1 POP PUSH1 0x0 DUP2 DUP4 DUP11 PUSH2 0x14D SWAP1 PUSH2 0xC1B JUMP JUMPDEST PUSH2 0x157 SWAP2 SWAP1 PUSH2 0x831 JUMP JUMPDEST PUSH2 0x161 SWAP2 SWAP1 PUSH2 0x91B JUMP JUMPDEST SWAP1 POP PUSH1 0x0 DUP3 DUP5 DUP12 PUSH2 0x171 SWAP1 PUSH2 0xC1B JUMP JUMPDEST PUSH2 0x17B SWAP2 SWAP1 PUSH2 0xA9C JUMP JUMPDEST PUSH2 0x185 SWAP2 SWAP1 PUSH2 0x91B JUMP JUMPDEST SWAP1 POP PUSH1 0x0 PUSH2 0x194 DUP13 DUP13 DUP13 PUSH2 0x23B JUMP JUMPDEST SWAP1 POP DUP1 DUP4 DUP4 SWAP9 POP SWAP9 POP SWAP9 POP POP POP POP POP POP POP SWAP4 POP SWAP4 POP SWAP4 SWAP1 POP JUMP JUMPDEST PUSH1 0x0 DUP1 DUP3 EQ ISZERO PUSH2 0x1C1 JUMPI PUSH1 0x0 SWAP1 POP PUSH2 0x236 JUMP JUMPDEST PUSH1 0x3 DUP3 GT PUSH2 0x1D2 JUMPI PUSH1 0x1 SWAP1 POP PUSH2 0x236 JUMP JUMPDEST PUSH1 0x0 DUP3 SWAP1 POP PUSH1 0x0 PUSH1 0x1 PUSH1 0x2 DUP4 PUSH2 0x1E8 SWAP2 SWAP1 PUSH2 0x91B JUMP JUMPDEST PUSH2 0x1F2 SWAP2 SWAP1 PUSH2 0x831 JUMP JUMPDEST SWAP1 POP PUSH1 0x0 DUP3 SWAP1 POP JUMPDEST DUP1 DUP3 SLT ISZERO PUSH2 0x22F JUMPI DUP2 SWAP1 POP PUSH1 0x2 DUP3 DUP4 DUP6 PUSH2 0x214 SWAP2 SWAP1 PUSH2 0x91B JUMP JUMPDEST PUSH2 0x21E SWAP2 SWAP1 PUSH2 0x831 JUMP JUMPDEST PUSH2 0x228 SWAP2 SWAP1 PUSH2 0x91B JUMP JUMPDEST SWAP2 POP PUSH2 0x1FA JUMP JUMPDEST DUP1 SWAP4 POP POP POP POP JUMPDEST SWAP2 SWAP1 POP JUMP JUMPDEST PUSH1 0x60 PUSH2 0x246 DUP5 PUSH2 0x282 JUMP JUMPDEST PUSH2 0x24F DUP5 PUSH2 0x282 JUMP JUMPDEST PUSH2 0x258 DUP5 PUSH2 0x282 JUMP JUMPDEST PUSH1 0x40 MLOAD PUSH1 0x20 ADD PUSH2 0x26A SWAP4 SWAP3 SWAP2 SWAP1 PUSH2 0x73A JUMP JUMPDEST PUSH1 0x40 MLOAD PUSH1 0x20 DUP2 DUP4 SUB SUB DUP2 MSTORE SWAP1 PUSH1 0x40 MSTORE SWAP1 POP SWAP4 SWAP3 POP POP POP JUMP JUMPDEST PUSH1 0x60 PUSH1 0x0 DUP3 EQ ISZERO PUSH2 0x2CA JUMPI PUSH1 0x40 MLOAD DUP1 PUSH1 0x40 ADD PUSH1 0x40 MSTORE DUP1 PUSH1 0x1 DUP2 MSTORE PUSH1 0x20 ADD PUSH32 0x3000000000000000000000000000000000000000000000000000000000000000 DUP2 MSTORE POP SWAP1 POP PUSH2 0x518 JUMP JUMPDEST PUSH1 0x0 DUP3 SWAP1 POP PUSH1 0x0 DUP1 PUSH1 0x0 SWAP1 POP PUSH1 0x0 DUP4 SLT ISZERO PUSH2 0x2F0 JUMPI PUSH1 0x1 SWAP1 POP DUP3 PUSH2 0x2ED SWAP1 PUSH2 0xC1B JUMP JUMPDEST SWAP3 POP JUMPDEST JUMPDEST PUSH1 0x0 DUP4 EQ PUSH2 0x31B JUMPI DUP2 DUP1 PUSH2 0x304 SWAP1 PUSH2 0xBA1 JUMP JUMPDEST SWAP3 POP POP PUSH1 0xA DUP4 PUSH2 0x314 SWAP2 SWAP1 PUSH2 0x91B JUMP JUMPDEST SWAP3 POP PUSH2 0x2F1 JUMP JUMPDEST PUSH1 0x0 DUP2 PUSH2 0x329 JUMPI PUSH1 0x0 PUSH2 0x32C JUMP JUMPDEST PUSH1 0x1 JUMPDEST PUSH1 0xFF AND DUP4 PUSH2 0x33A SWAP2 SWAP1 PUSH2 0x8C5 JUMP JUMPDEST PUSH8 0xFFFFFFFFFFFFFFFF DUP2 GT ISZERO PUSH2 0x379 JUMPI PUSH32 0x4E487B7100000000000000000000000000000000000000000000000000000000 PUSH1 0x0 MSTORE PUSH1 0x41 PUSH1 0x4 MSTORE PUSH1 0x24 PUSH1 0x0 REVERT JUMPDEST PUSH1 0x40 MLOAD SWAP1 DUP1 DUP3 MSTORE DUP1 PUSH1 0x1F ADD PUSH1 0x1F NOT AND PUSH1 0x20 ADD DUP3 ADD PUSH1 0x40 MSTORE DUP1 ISZERO PUSH2 0x3AB JUMPI DUP2 PUSH1 0x20 ADD PUSH1 0x1 DUP3 MUL DUP1 CALLDATASIZE DUP4 CALLDATACOPY DUP1 DUP3 ADD SWAP2 POP POP SWAP1 POP JUMPDEST POP SWAP1 POP PUSH1 0x0 DUP2 MLOAD SWAP1 POP PUSH1 0x0 DUP8 SLT PUSH2 0x3C2 JUMPI DUP7 PUSH2 0x3CD JUMP JUMPDEST DUP7 PUSH2 0x3CC SWAP1 PUSH2 0xC1B JUMP JUMPDEST JUMPDEST SWAP5 POP JUMPDEST PUSH1 0x0 DUP6 EQ PUSH2 0x47E JUMPI DUP1 DUP1 PUSH2 0x3E3 SWAP1 PUSH2 0xB77 JUMP JUMPDEST SWAP2 POP POP PUSH1 0xA DUP6 PUSH2 0x3F3 SWAP2 SWAP1 PUSH2 0xBEA JUMP JUMPDEST PUSH1 0x30 PUSH2 0x3FF SWAP2 SWAP1 PUSH2 0x8C5 JUMP JUMPDEST PUSH1 0xF8 SHL DUP3 DUP3 DUP2 MLOAD DUP2 LT PUSH2 0x43B JUMPI PUSH32 0x4E487B7100000000000000000000000000000000000000000000000000000000 PUSH1 0x0 MSTORE PUSH1 0x32 PUSH1 0x4 MSTORE PUSH1 0x24 PUSH1 0x0 REVERT JUMPDEST PUSH1 0x20 ADD ADD SWAP1 PUSH31 0xFFFFFFFFFFFFFFFFFFFFFFFFFFFFFFFFFFFFFFFFFFFFFFFFFFFFFFFFFFFFFF NOT AND SWAP1 DUP2 PUSH1 0x0 BYTE SWAP1 MSTORE8 POP PUSH1 0xA DUP6 PUSH2 0x477 SWAP2 SWAP1 PUSH2 0x91B JUMP JUMPDEST SWAP5 POP PUSH2 0x3D0 JUMP JUMPDEST DUP3 ISZERO PUSH2 0x50F JUMPI PUSH32 0x2D00000000000000000000000000000000000000000000000000000000000000 DUP3 PUSH1 0x0 DUP2 MLOAD DUP2 LT PUSH2 0x4DF JUMPI PUSH32 0x4E487B7100000000000000000000000000000000000000000000000000000000 PUSH1 0x0 MSTORE PUSH1 0x32 PUSH1 0x4 MSTORE PUSH1 0x24 PUSH1 0x0 REVERT JUMPDEST PUSH1 0x20 ADD ADD SWAP1 PUSH31 0xFFFFFFFFFFFFFFFFFFFFFFFFFFFFFFFFFFFFFFFFFFFFFFFFFFFFFFFFFFFFFF NOT AND SWAP1 DUP2 PUSH1 0x0 BYTE SWAP1 MSTORE8 POP JUMPDEST DUP2 SWAP6 POP POP POP POP POP POP JUMPDEST SWAP2 SWAP1 POP JUMP JUMPDEST PUSH1 0x0 DUP2 CALLDATALOAD SWAP1 POP PUSH2 0x52C DUP2 PUSH2 0xCD3 JUMP JUMPDEST SWAP3 SWAP2 POP POP JUMP JUMPDEST PUSH1 0x0 DUP1 PUSH1 0x0 PUSH1 0x60 DUP5 DUP7 SUB SLT ISZERO PUSH2 0x547 JUMPI PUSH1 0x0 DUP1 REVERT JUMPDEST PUSH1 0x0 PUSH2 0x555 DUP7 DUP3 DUP8 ADD PUSH2 0x51D JUMP JUMPDEST SWAP4 POP POP PUSH1 0x20 PUSH2 0x566 DUP7 DUP3 DUP8 ADD PUSH2 0x51D JUMP JUMPDEST SWAP3 POP POP PUSH1 0x40 PUSH2 0x577 DUP7 DUP3 DUP8 ADD PUSH2 0x51D JUMP JUMPDEST SWAP2 POP POP SWAP3 POP SWAP3 POP SWAP3 JUMP JUMPDEST PUSH2 0x58A DUP2 PUSH2 0xB30 JUMP JUMPDEST DUP3 MSTORE POP POP JUMP JUMPDEST PUSH1 0x0 PUSH2 0x59B DUP3 PUSH2 0x80A JUMP JUMPDEST PUSH2 0x5A5 DUP2 DUP6 PUSH2 0x815 JUMP JUMPDEST SWAP4 POP PUSH2 0x5B5 DUP2 DUP6 PUSH1 0x20 DUP7 ADD PUSH2 0xB44 JUMP JUMPDEST PUSH2 0x5BE DUP2 PUSH2 0xCC2 JUMP JUMPDEST DUP5 ADD SWAP2 POP POP SWAP3 SWAP2 POP POP JUMP JUMPDEST PUSH1 0x0 PUSH2 0x5D4 DUP3 PUSH2 0x80A JUMP JUMPDEST PUSH2 0x5DE DUP2 DUP6 PUSH2 0x826 JUMP JUMPDEST SWAP4 POP PUSH2 0x5EE DUP2 DUP6 PUSH1 0x20 DUP7 ADD PUSH2 0xB44 JUMP JUMPDEST DUP1 DUP5 ADD SWAP2 POP POP SWAP3 SWAP2 POP POP JUMP JUMPDEST PUSH1 0x0 PUSH2 0x607 PUSH1 0x1D DUP4 PUSH2 0x815 JUMP JUMPDEST SWAP2 POP PUSH32 0x436F656666696369656E7420612063616E6E6F74206265207A65726F2E000000 PUSH1 0x0 DUP4 ADD MSTORE PUSH1 0x20 DUP3 ADD SWAP1 POP SWAP2 SWAP1 POP JUMP JUMPDEST PUSH1 0x0 PUSH2 0x647 PUSH1 0x4 DUP4 PUSH2 0x826 JUMP JUMPDEST SWAP2 POP PUSH32 0x78202B2000000000000000000000000000000000000000000000000000000000 PUSH1 0x0 DUP4 ADD MSTORE PUSH1 0x4 DUP3 ADD SWAP1 POP SWAP2 SWAP1 POP JUMP JUMPDEST PUSH1 0x0 PUSH2 0x687 PUSH1 0x1F DUP4 PUSH2 0x815 JUMP JUMPDEST SWAP2 POP PUSH32 0x546865206571756174696F6E20686173206E6F207265616C20726F6F74732E00 PUSH1 0x0 DUP4 ADD MSTORE PUSH1 0x20 DUP3 ADD SWAP1 POP SWAP2 SWAP1 POP JUMP JUMPDEST PUSH1 0x0 PUSH2 0x6C7 PUSH1 0x4 DUP4 PUSH2 0x826 JUMP JUMPDEST SWAP2 POP PUSH32 0x203D203000000000000000000000000000000000000000000000000000000000 PUSH1 0x0 DUP4 ADD MSTORE PUSH1 0x4 DUP3 ADD SWAP1 POP SWAP2 SWAP1 POP JUMP JUMPDEST PUSH1 0x0 PUSH2 0x707 PUSH1 0x6 DUP4 PUSH2 0x826 JUMP JUMPDEST SWAP2 POP PUSH32 0x785E32202B200000000000000000000000000000000000000000000000000000 PUSH1 0x0 DUP4 ADD MSTORE PUSH1 0x6 DUP3 ADD SWAP1 POP SWAP2 SWAP1 POP JUMP JUMPDEST PUSH1 0x0 PUSH2 0x746 DUP3 DUP7 PUSH2 0x5C9 JUMP JUMPDEST SWAP2 POP PUSH2 0x751 DUP3 PUSH2 0x6FA JUMP JUMPDEST SWAP2 POP PUSH2 0x75D DUP3 DUP6 PUSH2 0x5C9 JUMP JUMPDEST SWAP2 POP PUSH2 0x768 DUP3 PUSH2 0x63A JUMP JUMPDEST SWAP2 POP PUSH2 0x774 DUP3 DUP5 PUSH2 0x5C9 JUMP JUMPDEST SWAP2 POP PUSH2 0x77F DUP3 PUSH2 0x6BA JUMP JUMPDEST SWAP2 POP DUP2 SWAP1 POP SWAP5 SWAP4 POP POP POP POP JUMP JUMPDEST PUSH1 0x0 PUSH1 0x60 DUP3 ADD SWAP1 POP DUP2 DUP2 SUB PUSH1 0x0 DUP4 ADD MSTORE PUSH2 0x7A6 DUP2 DUP7 PUSH2 0x590 JUMP JUMPDEST SWAP1 POP PUSH2 0x7B5 PUSH1 0x20 DUP4 ADD DUP6 PUSH2 0x581 JUMP JUMPDEST PUSH2 0x7C2 PUSH1 0x40 DUP4 ADD DUP5 PUSH2 0x581 JUMP JUMPDEST SWAP5 SWAP4 POP POP POP POP JUMP JUMPDEST PUSH1 0x0 PUSH1 0x20 DUP3 ADD SWAP1 POP DUP2 DUP2 SUB PUSH1 0x0 DUP4 ADD MSTORE PUSH2 0x7E3 DUP2 PUSH2 0x5FA JUMP JUMPDEST SWAP1 POP SWAP2 SWAP1 POP JUMP JUMPDEST PUSH1 0x0 PUSH1 0x20 DUP3 ADD SWAP1 POP DUP2 DUP2 SUB PUSH1 0x0 DUP4 ADD MSTORE PUSH2 0x803 DUP2 PUSH2 0x67A JUMP JUMPDEST SWAP1 POP SWAP2 SWAP1 POP JUMP JUMPDEST PUSH1 0x0 DUP2 MLOAD SWAP1 POP SWAP2 SWAP1 POP JUMP JUMPDEST PUSH1 0x0 DUP3 DUP3 MSTORE PUSH1 0x20 DUP3 ADD SWAP1 POP SWAP3 SWAP2 POP POP JUMP JUMPDEST PUSH1 0x0 DUP2 SWAP1 POP SWAP3 SWAP2 POP POP JUMP JUMPDEST PUSH1 0x0 PUSH2 0x83C DUP3 PUSH2 0xB30 JUMP JUMPDEST SWAP2 POP PUSH2 0x847 DUP4 PUSH2 0xB30 JUMP JUMPDEST SWAP3 POP DUP2 PUSH32 0x7FFFFFFFFFFFFFFFFFFFFFFFFFFFFFFFFFFFFFFFFFFFFFFFFFFFFFFFFFFFFFFF SUB DUP4 SGT PUSH1 0x0 DUP4 SLT ISZERO AND ISZERO PUSH2 0x882 JUMPI PUSH2 0x881 PUSH2 0xC64 JUMP JUMPDEST JUMPDEST DUP2 PUSH32 0x8000000000000000000000000000000000000000000000000000000000000000 SUB DUP4 SLT PUSH1 0x0 DUP4 SLT AND ISZERO PUSH2 0x8BA JUMPI PUSH2 0x8B9 PUSH2 0xC64 JUMP JUMPDEST JUMPDEST DUP3 DUP3 ADD SWAP1 POP SWAP3 SWAP2 POP POP JUMP JUMPDEST PUSH1 0x0 PUSH2 0x8D0 DUP3 PUSH2 0xB3A JUMP JUMPDEST SWAP2 POP PUSH2 0x8DB DUP4 PUSH2 0xB3A JUMP JUMPDEST SWAP3 POP DUP3 PUSH32 0xFFFFFFFFFFFFFFFFFFFFFFFFFFFFFFFFFFFFFFFFFFFFFFFFFFFFFFFFFFFFFFFF SUB DUP3 GT ISZERO PUSH2 0x910 JUMPI PUSH2 0x90F PUSH2 0xC64 JUMP JUMPDEST JUMPDEST DUP3 DUP3 ADD SWAP1 POP SWAP3 SWAP2 POP POP JUMP JUMPDEST PUSH1 0x0 PUSH2 0x926 DUP3 PUSH2 0xB30 JUMP JUMPDEST SWAP2 POP PUSH2 0x931 DUP4 PUSH2 0xB30 JUMP JUMPDEST SWAP3 POP DUP3 PUSH2 0x941 JUMPI PUSH2 0x940 PUSH2 0xC93 JUMP JUMPDEST JUMPDEST PUSH1 0x1 PUSH1 0x0 SUB DUP4 EQ PUSH32 0x8000000000000000000000000000000000000000000000000000000000000000 DUP4 EQ AND ISZERO PUSH2 0x97A JUMPI PUSH2 0x979 PUSH2 0xC64 JUMP JUMPDEST JUMPDEST DUP3 DUP3 SDIV SWAP1 POP SWAP3 SWAP2 POP POP JUMP JUMPDEST PUSH1 0x0 PUSH2 0x990 DUP3 PUSH2 0xB30 JUMP JUMPDEST SWAP2 POP PUSH2 0x99B DUP4 PUSH2 0xB30 JUMP JUMPDEST SWAP3 POP DUP3 PUSH32 0x7FFFFFFFFFFFFFFFFFFFFFFFFFFFFFFFFFFFFFFFFFFFFFFFFFFFFFFFFFFFFFFF DIV DUP3 GT PUSH1 0x0 DUP5 SGT PUSH1 0x0 DUP5 SGT AND AND ISZERO PUSH2 0x9DA JUMPI PUSH2 0x9D9 PUSH2 0xC64 JUMP JUMPDEST JUMPDEST DUP2 PUSH32 0x8000000000000000000000000000000000000000000000000000000000000000 SDIV DUP4 SLT PUSH1 0x0 DUP5 SLT PUSH1 0x0 DUP5 SGT AND AND ISZERO PUSH2 0xA17 JUMPI PUSH2 0xA16 PUSH2 0xC64 JUMP JUMPDEST JUMPDEST DUP3 PUSH32 0x8000000000000000000000000000000000000000000000000000000000000000 SDIV DUP3 SLT PUSH1 0x0 DUP5 SGT PUSH1 0x0 DUP5 SLT AND AND ISZERO PUSH2 0xA54 JUMPI PUSH2 0xA53 PUSH2 0xC64 JUMP JUMPDEST JUMPDEST DUP3 PUSH32 0x7FFFFFFFFFFFFFFFFFFFFFFFFFFFFFFFFFFFFFFFFFFFFFFFFFFFFFFFFFFFFFFF SDIV DUP3 SLT PUSH1 0x0 DUP5 SLT PUSH1 0x0 DUP5 SLT AND AND ISZERO PUSH2 0xA91 JUMPI PUSH2 0xA90 PUSH2 0xC64 JUMP JUMPDEST JUMPDEST DUP3 DUP3 MUL SWAP1 POP SWAP3 SWAP2 POP POP JUMP JUMPDEST PUSH1 0x0 PUSH2 0xAA7 DUP3 PUSH2 0xB30 JUMP JUMPDEST SWAP2 POP PUSH2 0xAB2 DUP4 PUSH2 0xB30 JUMP JUMPDEST SWAP3 POP DUP3 PUSH32 0x8000000000000000000000000000000000000000000000000000000000000000 ADD DUP3 SLT PUSH1 0x0 DUP5 SLT ISZERO AND ISZERO PUSH2 0xAED JUMPI PUSH2 0xAEC PUSH2 0xC64 JUMP JUMPDEST JUMPDEST DUP3 PUSH32 0x7FFFFFFFFFFFFFFFFFFFFFFFFFFFFFFFFFFFFFFFFFFFFFFFFFFFFFFFFFFFFFFF ADD DUP3 SGT PUSH1 0x0 DUP5 SLT AND ISZERO PUSH2 0xB25 JUMPI PUSH2 0xB24 PUSH2 0xC64 JUMP JUMPDEST JUMPDEST DUP3 DUP3 SUB SWAP1 POP SWAP3 SWAP2 POP POP JUMP JUMPDEST PUSH1 0x0 DUP2 SWAP1 POP SWAP2 SWAP1 POP JUMP JUMPDEST PUSH1 0x0 DUP2 SWAP1 POP SWAP2 SWAP1 POP JUMP JUMPDEST PUSH1 0x0 JUMPDEST DUP4 DUP2 LT ISZERO PUSH2 0xB62 JUMPI DUP1 DUP3 ADD MLOAD DUP2 DUP5 ADD MSTORE PUSH1 0x20 DUP2 ADD SWAP1 POP PUSH2 0xB47 JUMP JUMPDEST DUP4 DUP2 GT ISZERO PUSH2 0xB71 JUMPI PUSH1 0x0 DUP5 DUP5 ADD MSTORE JUMPDEST POP POP POP POP JUMP JUMPDEST PUSH1 0x0 PUSH2 0xB82 DUP3 PUSH2 0xB3A JUMP JUMPDEST SWAP2 POP PUSH1 0x0 DUP3 EQ ISZERO PUSH2 0xB96 JUMPI PUSH2 0xB95 PUSH2 0xC64 JUMP JUMPDEST JUMPDEST PUSH1 0x1 DUP3 SUB SWAP1 POP SWAP2 SWAP1 POP JUMP JUMPDEST PUSH1 0x0 PUSH2 0xBAC DUP3 PUSH2 0xB3A JUMP JUMPDEST SWAP2 POP PUSH32 0xFFFFFFFFFFFFFFFFFFFFFFFFFFFFFFFFFFFFFFFFFFFFFFFFFFFFFFFFFFFFFFFF DUP3 EQ ISZERO PUSH2 0xBDF JUMPI PUSH2 0xBDE PUSH2 0xC64 JUMP JUMPDEST JUMPDEST PUSH1 0x1 DUP3 ADD SWAP1 POP SWAP2 SWAP1 POP JUMP JUMPDEST PUSH1 0x0 PUSH2 0xBF5 DUP3 PUSH2 0xB30 JUMP JUMPDEST SWAP2 POP PUSH2 0xC00 DUP4 PUSH2 0xB30 JUMP JUMPDEST SWAP3 POP DUP3 PUSH2 0xC10 JUMPI PUSH2 0xC0F PUSH2 0xC93 JUMP JUMPDEST JUMPDEST DUP3 DUP3 SMOD SWAP1 POP SWAP3 SWAP2 POP POP JUMP JUMPDEST PUSH1 0x0 PUSH2 0xC26 DUP3 PUSH2 0xB30 JUMP JUMPDEST SWAP2 POP PUSH32 0x8000000000000000000000000000000000000000000000000000000000000000 DUP3 EQ ISZERO PUSH2 0xC59 JUMPI PUSH2 0xC58 PUSH2 0xC64 JUMP JUMPDEST JUMPDEST DUP2 PUSH1 0x0 SUB SWAP1 POP SWAP2 SWAP1 POP JUMP JUMPDEST PUSH32 0x4E487B7100000000000000000000000000000000000000000000000000000000 PUSH1 0x0 MSTORE PUSH1 0x11 PUSH1 0x4 MSTORE PUSH1 0x24 PUSH1 0x0 REVERT JUMPDEST PUSH32 0x4E487B7100000000000000000000000000000000000000000000000000000000 PUSH1 0x0 MSTORE PUSH1 0x12 PUSH1 0x4 MSTORE PUSH1 0x24 PUSH1 0x0 REVERT JUMPDEST PUSH1 0x0 PUSH1 0x1F NOT PUSH1 0x1F DUP4 ADD AND SWAP1 POP SWAP2 SWAP1 POP JUMP JUMPDEST PUSH2 0xCDC DUP2 PUSH2 0xB30 JUMP JUMPDEST DUP2 EQ PUSH2 0xCE7 JUMPI PUSH1 0x0 DUP1 REVERT JUMPDEST POP JUMP INVALID LOG2 PUSH5 0x6970667358 0x22 SLT KECCAK256 0xEF 0x24 0xF7 DUP12 CALLDATASIZE 0xD3 DUP4 PUSH5 0x9ADAB476A9 PUSH22 0x101C511758F4E5FDDE011CB04EE2D3BA2B0664736F6C PUSH4 0x43000800 STOP CALLER "
				},
				"gasEstimates": {
					"creation": {
						"codeDepositCost": "672000",
						"executionCost": "702",
						"totalCost": "672702"
					},
					"external": {
						"solveQuadratic(int256,int256,int256)": "infinite"
					},
					"internal": {
						"getEquation(int256,int256,int256)": "infinite",
						"intToString(int256)": "infinite",
						"sqrt(uint256)": "infinite"
					}
				},
				"methodIdentifiers": {
					"solveQuadratic(int256,int256,int256)": "872339bd"
				}
			},
			"storageLayout": {
				"storage": [],
				"types": null
			},
			"userdoc": {
				"kind": "user",
				"methods": {},
				"version": 1
			}
		}
	}
}