{
	"data": {
		"bytecode": {
			"linkReferences": {},
			"object": "608060405234801561001057600080fd5b506103b3806100206000396000f3fe608060405234801561001057600080fd5b506004361061002b5760003560e01c8063fe459d2014610030575b600080fd5b61004a60048036038101906100459190610144565b610060565b604051610057919061017c565b60405180910390f35b6000806000905060008390506000808590505b6000811461009d5781806100869061028e565b925050600a8161009691906101ed565b9050610073565b5b600083146100e3576000600a846100b591906102d7565b90506100c181846100f1565b856100cc9190610197565b9450600a846100db91906101ed565b93505061009e565b858414945050505050919050565b6000806001905060005b8381101561012457848261010f919061021e565b9150808061011c9061028e565b9150506100fb565b508091505092915050565b60008135905061013e81610366565b92915050565b60006020828403121561015657600080fd5b60006101648482850161012f565b91505092915050565b61017681610278565b82525050565b6000602082019050610191600083018461016d565b92915050565b60006101a282610284565b91506101ad83610284565b9250827fffffffffffffffffffffffffffffffffffffffffffffffffffffffffffffffff038211156101e2576101e1610308565b5b828201905092915050565b60006101f882610284565b915061020383610284565b92508261021357610212610337565b5b828204905092915050565b600061022982610284565b915061023483610284565b9250817fffffffffffffffffffffffffffffffffffffffffffffffffffffffffffffffff048311821515161561026d5761026c610308565b5b828202905092915050565b60008115159050919050565b6000819050919050565b600061029982610284565b91507fffffffffffffffffffffffffffffffffffffffffffffffffffffffffffffffff8214156102cc576102cb610308565b5b600182019050919050565b60006102e282610284565b91506102ed83610284565b9250826102fd576102fc610337565b5b828206905092915050565b7f4e487b7100000000000000000000000000000000000000000000000000000000600052601160045260246000fd5b7f4e487b7100000000000000000000000000000000000000000000000000000000600052601260045260246000fd5b61036f81610284565b811461037a57600080fd5b5056fea2646970667358221220a048532ce604018e138d914b3e6c5814ce3d094ad965e47014526c14a2eeabc064736f6c63430008000033",
			"opcodes": "PUSH1 0x80 PUSH1 0x40 MSTORE CALLVALUE DUP1 ISZERO PUSH2 0x10 JUMPI PUSH1 0x0 DUP1 REVERT JUMPDEST POP PUSH2 0x3B3 DUP1 PUSH2 0x20 PUSH1 0x0 CODECOPY PUSH1 0x0 RETURN INVALID PUSH1 0x80 PUSH1 0x40 MSTORE CALLVALUE DUP1 ISZERO PUSH2 0x10 JUMPI PUSH1 0x0 DUP1 REVERT JUMPDEST POP PUSH1 0x4 CALLDATASIZE LT PUSH2 0x2B JUMPI PUSH1 0x0 CALLDATALOAD PUSH1 0xE0 SHR DUP1 PUSH4 0xFE459D20 EQ PUSH2 0x30 JUMPI JUMPDEST PUSH1 0x0 DUP1 REVERT JUMPDEST PUSH2 0x4A PUSH1 0x4 DUP1 CALLDATASIZE SUB DUP2 ADD SWAP1 PUSH2 0x45 SWAP2 SWAP1 PUSH2 0x144 JUMP JUMPDEST PUSH2 0x60 JUMP JUMPDEST PUSH1 0x40 MLOAD PUSH2 0x57 SWAP2 SWAP1 PUSH2 0x17C JUMP JUMPDEST PUSH1 0x40 MLOAD DUP1 SWAP2 SUB SWAP1 RETURN JUMPDEST PUSH1 0x0 DUP1 PUSH1 0x0 SWAP1 POP PUSH1 0x0 DUP4 SWAP1 POP PUSH1 0x0 DUP1 DUP6 SWAP1 POP JUMPDEST PUSH1 0x0 DUP2 EQ PUSH2 0x9D JUMPI DUP2 DUP1 PUSH2 0x86 SWAP1 PUSH2 0x28E JUMP JUMPDEST SWAP3 POP POP PUSH1 0xA DUP2 PUSH2 0x96 SWAP2 SWAP1 PUSH2 0x1ED JUMP JUMPDEST SWAP1 POP PUSH2 0x73 JUMP JUMPDEST JUMPDEST PUSH1 0x0 DUP4 EQ PUSH2 0xE3 JUMPI PUSH1 0x0 PUSH1 0xA DUP5 PUSH2 0xB5 SWAP2 SWAP1 PUSH2 0x2D7 JUMP JUMPDEST SWAP1 POP PUSH2 0xC1 DUP2 DUP5 PUSH2 0xF1 JUMP JUMPDEST DUP6 PUSH2 0xCC SWAP2 SWAP1 PUSH2 0x197 JUMP JUMPDEST SWAP5 POP PUSH1 0xA DUP5 PUSH2 0xDB SWAP2 SWAP1 PUSH2 0x1ED JUMP JUMPDEST SWAP4 POP POP PUSH2 0x9E JUMP JUMPDEST DUP6 DUP5 EQ SWAP5 POP POP POP POP POP SWAP2 SWAP1 POP JUMP JUMPDEST PUSH1 0x0 DUP1 PUSH1 0x1 SWAP1 POP PUSH1 0x0 JUMPDEST DUP4 DUP2 LT ISZERO PUSH2 0x124 JUMPI DUP5 DUP3 PUSH2 0x10F SWAP2 SWAP1 PUSH2 0x21E JUMP JUMPDEST SWAP2 POP DUP1 DUP1 PUSH2 0x11C SWAP1 PUSH2 0x28E JUMP JUMPDEST SWAP2 POP POP PUSH2 0xFB JUMP JUMPDEST POP DUP1 SWAP2 POP POP SWAP3 SWAP2 POP POP JUMP JUMPDEST PUSH1 0x0 DUP2 CALLDATALOAD SWAP1 POP PUSH2 0x13E DUP2 PUSH2 0x366 JUMP JUMPDEST SWAP3 SWAP2 POP POP JUMP JUMPDEST PUSH1 0x0 PUSH1 0x20 DUP3 DUP5 SUB SLT ISZERO PUSH2 0x156 JUMPI PUSH1 0x0 DUP1 REVERT JUMPDEST PUSH1 0x0 PUSH2 0x164 DUP5 DUP3 DUP6 ADD PUSH2 0x12F JUMP JUMPDEST SWAP2 POP POP SWAP3 SWAP2 POP POP JUMP JUMPDEST PUSH2 0x176 DUP2 PUSH2 0x278 JUMP JUMPDEST DUP3 MSTORE POP POP JUMP JUMPDEST PUSH1 0x0 PUSH1 0x20 DUP3 ADD SWAP1 POP PUSH2 0x191 PUSH1 0x0 DUP4 ADD DUP5 PUSH2 0x16D JUMP JUMPDEST SWAP3 SWAP2 POP POP JUMP JUMPDEST PUSH1 0x0 PUSH2 0x1A2 DUP3 PUSH2 0x284 JUMP JUMPDEST SWAP2 POP PUSH2 0x1AD DUP4 PUSH2 0x284 JUMP JUMPDEST SWAP3 POP DUP3 PUSH32 0xFFFFFFFFFFFFFFFFFFFFFFFFFFFFFFFFFFFFFFFFFFFFFFFFFFFFFFFFFFFFFFFF SUB DUP3 GT ISZERO PUSH2 0x1E2 JUMPI PUSH2 0x1E1 PUSH2 0x308 JUMP JUMPDEST JUMPDEST DUP3 DUP3 ADD SWAP1 POP SWAP3 SWAP2 POP POP JUMP JUMPDEST PUSH1 0x0 PUSH2 0x1F8 DUP3 PUSH2 0x284 JUMP JUMPDEST SWAP2 POP PUSH2 0x203 DUP4 PUSH2 0x284 JUMP JUMPDEST SWAP3 POP DUP3 PUSH2 0x213 JUMPI PUSH2 0x212 PUSH2 0x337 JUMP JUMPDEST JUMPDEST DUP3 DUP3 DIV SWAP1 POP SWAP3 SWAP2 POP POP JUMP JUMPDEST PUSH1 0x0 PUSH2 0x229 DUP3 PUSH2 0x284 JUMP JUMPDEST SWAP2 POP PUSH2 0x234 DUP4 PUSH2 0x284 JUMP JUMPDEST SWAP3 POP DUP2 PUSH32 0xFFFFFFFFFFFFFFFFFFFFFFFFFFFFFFFFFFFFFFFFFFFFFFFFFFFFFFFFFFFFFFFF DIV DUP4 GT DUP3 ISZERO ISZERO AND ISZERO PUSH2 0x26D JUMPI PUSH2 0x26C PUSH2 0x308 JUMP JUMPDEST JUMPDEST DUP3 DUP3 MUL SWAP1 POP SWAP3 SWAP2 POP POP JUMP JUMPDEST PUSH1 0x0 DUP2 ISZERO ISZERO SWAP1 POP SWAP2 SWAP1 POP JUMP JUMPDEST PUSH1 0x0 DUP2 SWAP1 POP SWAP2 SWAP1 POP JUMP JUMPDEST PUSH1 0x0 PUSH2 0x299 DUP3 PUSH2 0x284 JUMP JUMPDEST SWAP2 POP PUSH32 0xFFFFFFFFFFFFFFFFFFFFFFFFFFFFFFFFFFFFFFFFFFFFFFFFFFFFFFFFFFFFFFFF DUP3 EQ ISZERO PUSH2 0x2CC JUMPI PUSH2 0x2CB PUSH2 0x308 JUMP JUMPDEST JUMPDEST PUSH1 0x1 DUP3 ADD SWAP1 POP SWAP2 SWAP1 POP JUMP JUMPDEST PUSH1 0x0 PUSH2 0x2E2 DUP3 PUSH2 0x284 JUMP JUMPDEST SWAP2 POP PUSH2 0x2ED DUP4 PUSH2 0x284 JUMP JUMPDEST SWAP3 POP DUP3 PUSH2 0x2FD JUMPI PUSH2 0x2FC PUSH2 0x337 JUMP JUMPDEST JUMPDEST DUP3 DUP3 MOD SWAP1 POP SWAP3 SWAP2 POP POP JUMP JUMPDEST PUSH32 0x4E487B7100000000000000000000000000000000000000000000000000000000 PUSH1 0x0 MSTORE PUSH1 0x11 PUSH1 0x4 MSTORE PUSH1 0x24 PUSH1 0x0 REVERT JUMPDEST PUSH32 0x4E487B7100000000000000000000000000000000000000000000000000000000 PUSH1 0x0 MSTORE PUSH1 0x12 PUSH1 0x4 MSTORE PUSH1 0x24 PUSH1 0x0 REVERT JUMPDEST PUSH2 0x36F DUP2 PUSH2 0x284 JUMP JUMPDEST DUP2 EQ PUSH2 0x37A JUMPI PUSH1 0x0 DUP1 REVERT JUMPDEST POP JUMP INVALID LOG2 PUSH5 0x6970667358 0x22 SLT KECCAK256 LOG0 0x48 MSTORE8 0x2C 0xE6 DIV ADD DUP15 SGT DUP14 SWAP2 0x4B RETURNDATACOPY PUSH13 0x5814CE3D094AD965E47014526C EQ LOG2 0xEE 0xAB 0xC0 PUSH5 0x736F6C6343 STOP ADDMOD STOP STOP CALLER "
		},
		"gasEstimates": {
			"creation": {
				"codeDepositCost": "189400",
				"executionCost": "232",
				"totalCost": "189632"
			},
			"external": {
				"isArmstrong(uint256)": "infinite"
			},
			"internal": {
				"power(uint256,uint256)": "infinite"
			}
		},
		"methodIdentifiers": {
			"isArmstrong(uint256)": "fe459d20"
		}
	},
	"abi": [
		{
			"inputs": [
				{
					"internalType": "uint256",
					"name": "num",
					"type": "uint256"
				}
			],
			"name": "isArmstrong",
			"outputs": [
				{
					"internalType": "bool",
					"name": "",
					"type": "bool"
				}
			],
			"stateMutability": "pure",
			"type": "function"
		}
	]
}